{
  "_format": "hh-sol-artifact-1",
  "contractName": "ContestD",
  "sourceName": "contracts/ContestD.sol",
  "abi": [
    {
      "inputs": [
        {
          "internalType": "string",
          "name": "playbackId",
          "type": "string"
        },
        {
          "internalType": "string",
          "name": "contestName",
          "type": "string"
        }
      ],
      "name": "addVideosInContest",
      "outputs": [],
      "stateMutability": "nonpayable",
      "type": "function"
    },
    {
      "inputs": [
        {
          "internalType": "uint256",
          "name": "",
          "type": "uint256"
        }
      ],
      "name": "allContest",
      "outputs": [
        {
          "internalType": "string",
          "name": "startTime",
          "type": "string"
        },
        {
          "internalType": "uint256",
          "name": "endTime",
          "type": "uint256"
        },
        {
          "internalType": "string",
          "name": "name",
          "type": "string"
        },
        {
          "internalType": "address",
          "name": "creator",
          "type": "address"
        },
        {
          "internalType": "string",
          "name": "desc",
          "type": "string"
        }
      ],
      "stateMutability": "view",
      "type": "function"
    },
    {
      "inputs": [
        {
          "internalType": "string",
          "name": "",
          "type": "string"
        },
        {
          "internalType": "uint256",
          "name": "",
          "type": "uint256"
        }
      ],
      "name": "allContestsDonations",
      "outputs": [
        {
          "internalType": "address payable",
          "name": "user",
          "type": "address"
        },
        {
          "internalType": "uint256",
          "name": "amount",
          "type": "uint256"
        },
        {
          "internalType": "string",
          "name": "playbackId",
          "type": "string"
        }
      ],
      "stateMutability": "view",
      "type": "function"
    },
    {
      "inputs": [
        {
          "components": [
            {
              "internalType": "address payable",
              "name": "user",
              "type": "address"
            },
            {
              "internalType": "uint256",
              "name": "amount",
              "type": "uint256"
            },
            {
              "internalType": "string",
              "name": "playbackId",
              "type": "string"
            }
          ],
          "internalType": "struct ContestD.ContestDonation[]",
          "name": "contestDonations",
          "type": "tuple[]"
        }
      ],
      "name": "checkWinner",
      "outputs": [
        {
          "internalType": "string",
          "name": "",
          "type": "string"
        }
      ],
      "stateMutability": "nonpayable",
      "type": "function"
    },
    {
      "inputs": [
        {
          "internalType": "string",
          "name": "",
          "type": "string"
        },
        {
          "internalType": "uint256",
          "name": "",
          "type": "uint256"
        }
      ],
      "name": "contestEndMap",
      "outputs": [
        {
          "internalType": "address payable",
          "name": "user",
          "type": "address"
        },
        {
          "internalType": "uint256",
          "name": "amount",
          "type": "uint256"
        },
        {
          "internalType": "string",
          "name": "playbackId",
          "type": "string"
        }
      ],
      "stateMutability": "view",
      "type": "function"
    },
    {
      "inputs": [
        {
          "internalType": "string",
          "name": "",
          "type": "string"
        },
        {
          "internalType": "uint256",
          "name": "",
          "type": "uint256"
        }
      ],
      "name": "contestVideos",
      "outputs": [
        {
          "internalType": "string",
          "name": "",
          "type": "string"
        }
      ],
      "stateMutability": "view",
      "type": "function"
    },
    {
      "inputs": [
        {
          "internalType": "string",
          "name": "startTime",
          "type": "string"
        },
        {
          "internalType": "uint256",
          "name": "duration",
          "type": "uint256"
        },
        {
          "internalType": "string",
          "name": "name",
          "type": "string"
        },
        {
          "internalType": "string",
          "name": "desc",
          "type": "string"
        }
      ],
      "name": "createContest",
      "outputs": [],
      "stateMutability": "nonpayable",
      "type": "function"
    },
    {
      "inputs": [],
      "name": "fetchAllContests",
      "outputs": [
        {
          "components": [
            {
              "internalType": "string",
              "name": "startTime",
              "type": "string"
            },
            {
              "internalType": "uint256",
              "name": "endTime",
              "type": "uint256"
            },
            {
              "internalType": "string",
              "name": "name",
              "type": "string"
            },
            {
              "internalType": "address",
              "name": "creator",
              "type": "address"
            },
            {
              "internalType": "string",
              "name": "desc",
              "type": "string"
            }
          ],
          "internalType": "struct ContestD.Contest[]",
          "name": "",
          "type": "tuple[]"
        }
      ],
      "stateMutability": "view",
      "type": "function"
    },
    {
      "inputs": [
        {
          "internalType": "string",
          "name": "name",
          "type": "string"
        }
      ],
      "name": "fetchContestDonations",
      "outputs": [
        {
          "components": [
            {
              "internalType": "address payable",
              "name": "user",
              "type": "address"
            },
            {
              "internalType": "uint256",
              "name": "amount",
              "type": "uint256"
            },
            {
              "internalType": "string",
              "name": "playbackId",
              "type": "string"
            }
          ],
          "internalType": "struct ContestD.ContestDonation[]",
          "name": "",
          "type": "tuple[]"
        }
      ],
      "stateMutability": "view",
      "type": "function"
    },
    {
      "inputs": [
        {
          "internalType": "string",
          "name": "contestName",
          "type": "string"
        }
      ],
      "name": "getVideosInContest",
      "outputs": [
        {
          "internalType": "string[]",
          "name": "",
          "type": "string[]"
        }
      ],
      "stateMutability": "view",
      "type": "function"
    },
    {
      "inputs": [
        {
          "internalType": "string",
          "name": "contestName",
          "type": "string"
        }
      ],
      "name": "releaseFunds",
      "outputs": [],
      "stateMutability": "payable",
      "type": "function"
    },
    {
      "inputs": [
        {
          "internalType": "string",
          "name": "key",
          "type": "string"
        },
        {
          "internalType": "string",
          "name": "contestName",
          "type": "string"
        }
      ],
      "name": "stakeInContest",
      "outputs": [],
      "stateMutability": "payable",
      "type": "function"
    }
  ],
  "bytecode": "0x608060405234801561001057600080fd5b50612bfd806100206000396000f3fe6080604052600436106100a75760003560e01c80638b553f0f116100645780638b553f0f146101fa578063ac6744d714610239578063c3abd8b314610276578063cae594bb14610292578063d4ca6576146102bb578063f214727f146102f8576100a7565b806304432d4b146100ac5780632e192468146100ed57806332e8fcc61461012a578063565780c21461016957806363196f5e146101a6578063794c87cb146101d1575b600080fd5b3480156100b857600080fd5b506100d360048036038101906100ce9190611d15565b610314565b6040516100e4959493929190611e2b565b60405180910390f35b3480156100f957600080fd5b50610114600480360381019061010f9190611ef8565b610512565b6040516101219190612051565b60405180910390f35b34801561013657600080fd5b50610151600480360381019061014c91906121a3565b61060c565b60405161016093929190612220565b60405180910390f35b34801561017557600080fd5b50610190600480360381019061018b91906123f5565b610711565b60405161019d919061243e565b60405180910390f35b3480156101b257600080fd5b506101bb6109c4565b6040516101c891906125c4565b60405180910390f35b3480156101dd57600080fd5b506101f860048036038101906101f391906125e6565b610c39565b005b34801561020657600080fd5b50610221600480360381019061021c91906121a3565b610c9b565b60405161023093929190612220565b60405180910390f35b34801561024557600080fd5b50610260600480360381019061025b91906121a3565b610da0565b60405161026d919061243e565b60405180910390f35b610290600480360381019061028b9190611ef8565b610e6f565b005b34801561029e57600080fd5b506102b960048036038101906102b49190612667565b611552565b005b3480156102c757600080fd5b506102e260048036038101906102dd9190611ef8565b61175c565b6040516102ef9190612851565b60405180910390f35b610312600480360381019061030d91906125e6565b611a23565b005b6001818154811061032457600080fd5b9060005260206000209060050201600091509050806000018054610347906128a2565b80601f0160208091040260200160405190810160405280929190818152602001828054610373906128a2565b80156103c05780601f10610395576101008083540402835291602001916103c0565b820191906000526020600020905b8154815290600101906020018083116103a357829003601f168201915b5050505050908060010154908060020180546103db906128a2565b80601f0160208091040260200160405190810160405280929190818152602001828054610407906128a2565b80156104545780601f1061042957610100808354040283529160200191610454565b820191906000526020600020905b81548152906001019060200180831161043757829003601f168201915b5050505050908060030160009054906101000a900473ffffffffffffffffffffffffffffffffffffffff169080600401805461048f906128a2565b80601f01602080910402602001604051908101604052809291908181526020018280546104bb906128a2565b80156105085780601f106104dd57610100808354040283529160200191610508565b820191906000526020600020905b8154815290600101906020018083116104eb57829003601f168201915b5050505050905085565b606060008383604051610526929190612904565b9081526020016040518091039020805480602002602001604051908101604052809291908181526020016000905b82821015610600578382906000526020600020018054610573906128a2565b80601f016020809104026020016040519081016040528092919081815260200182805461059f906128a2565b80156105ec5780601f106105c1576101008083540402835291602001916105ec565b820191906000526020600020905b8154815290600101906020018083116105cf57829003601f168201915b505050505081526020019060010190610554565b50505050905092915050565b600382805160208101820180518482526020830160208501208183528095505050505050818154811061063e57600080fd5b9060005260206000209060030201600091509150508060000160009054906101000a900473ffffffffffffffffffffffffffffffffffffffff169080600101549080600201805461068e906128a2565b80601f01602080910402602001604051908101604052809291908181526020018280546106ba906128a2565b80156107075780601f106106dc57610100808354040283529160200191610707565b820191906000526020600020905b8154815290600101906020018083116106ea57829003601f168201915b5050505050905083565b6060806000805b84518110156108245760038582815181106107365761073561291d565b5b60200260200101516040015160405161074f919061297d565b90815260200160405180910390208582815181106107705761076f61291d565b5b6020026020010151908060018154018082558091505060019003906000526020600020906003020160009091909190915060008201518160000160006101000a81548173ffffffffffffffffffffffffffffffffffffffff021916908373ffffffffffffffffffffffffffffffffffffffff16021790555060208201518160010155604082015181600201908051906020019061080e929190611b5d565b505050808061081c906129c3565b915050610718565b5060005b84518110156109b9578160038683815181106108475761084661291d565b5b602002602001015160400151604051610860919061297d565b90815260200160405180910390208054905011156109a657600385828151811061088d5761088c61291d565b5b6020026020010151604001516040516108a6919061297d565b908152602001604051809103902080549050915060038582815181106108cf576108ce61291d565b5b6020026020010151604001516040516108e8919061297d565b90815260200160405180910390206000815481106109095761090861291d565b5b90600052602060002090600302016002018054610925906128a2565b80601f0160208091040260200160405190810160405280929190818152602001828054610951906128a2565b801561099e5780601f106109735761010080835404028352916020019161099e565b820191906000526020600020905b81548152906001019060200180831161098157829003601f168201915b505050505092505b80806109b1906129c3565b915050610828565b508192505050919050565b60606001805480602002602001604051908101604052809291908181526020016000905b82821015610c3057838290600052602060002090600502016040518060a0016040529081600082018054610a1b906128a2565b80601f0160208091040260200160405190810160405280929190818152602001828054610a47906128a2565b8015610a945780601f10610a6957610100808354040283529160200191610a94565b820191906000526020600020905b815481529060010190602001808311610a7757829003601f168201915b5050505050815260200160018201548152602001600282018054610ab7906128a2565b80601f0160208091040260200160405190810160405280929190818152602001828054610ae3906128a2565b8015610b305780601f10610b0557610100808354040283529160200191610b30565b820191906000526020600020905b815481529060010190602001808311610b1357829003601f168201915b505050505081526020016003820160009054906101000a900473ffffffffffffffffffffffffffffffffffffffff1673ffffffffffffffffffffffffffffffffffffffff1673ffffffffffffffffffffffffffffffffffffffff168152602001600482018054610b9f906128a2565b80601f0160208091040260200160405190810160405280929190818152602001828054610bcb906128a2565b8015610c185780601f10610bed57610100808354040283529160200191610c18565b820191906000526020600020905b815481529060010190602001808311610bfb57829003601f168201915b505050505081525050815260200190600101906109e8565b50505050905090565b60008282604051610c4b929190612904565b9081526020016040518091039020848490918060018154018082558091505060019003906000526020600020016000909192909192909192909192509190610c94929190611be3565b5050505050565b6002828051602081018201805184825260208301602085012081835280955050505050508181548110610ccd57600080fd5b9060005260206000209060030201600091509150508060000160009054906101000a900473ffffffffffffffffffffffffffffffffffffffff1690806001015490806002018054610d1d906128a2565b80601f0160208091040260200160405190810160405280929190818152602001828054610d49906128a2565b8015610d965780601f10610d6b57610100808354040283529160200191610d96565b820191906000526020600020905b815481529060010190602001808311610d7957829003601f168201915b5050505050905083565b6000828051602081018201805184825260208301602085012081835280955050505050508181548110610dd257600080fd5b90600052602060002001600091509150508054610dee906128a2565b80601f0160208091040260200160405190810160405280929190818152602001828054610e1a906128a2565b8015610e675780601f10610e3c57610100808354040283529160200191610e67565b820191906000526020600020905b815481529060010190602001808311610e4a57829003601f168201915b505050505081565b610e77611c69565b60005b60018054905081101561115a5760018181548110610e9b57610e9a61291d565b5b9060005260206000209060050201600201604051602001610ebc9190612aa0565b604051602081830303815290604052805190602001208484604051602001610ee5929190612904565b6040516020818303038152906040528051906020012014156111475760018181548110610f1557610f1461291d565b5b90600052602060002090600502016040518060a0016040529081600082018054610f3e906128a2565b80601f0160208091040260200160405190810160405280929190818152602001828054610f6a906128a2565b8015610fb75780601f10610f8c57610100808354040283529160200191610fb7565b820191906000526020600020905b815481529060010190602001808311610f9a57829003601f168201915b5050505050815260200160018201548152602001600282018054610fda906128a2565b80601f0160208091040260200160405190810160405280929190818152602001828054611006906128a2565b80156110535780601f1061102857610100808354040283529160200191611053565b820191906000526020600020905b81548152906001019060200180831161103657829003601f168201915b505050505081526020016003820160009054906101000a900473ffffffffffffffffffffffffffffffffffffffff1673ffffffffffffffffffffffffffffffffffffffff1673ffffffffffffffffffffffffffffffffffffffff1681526020016004820180546110c2906128a2565b80601f01602080910402602001604051908101604052809291908181526020018280546110ee906128a2565b801561113b5780601f106111105761010080835404028352916020019161113b565b820191906000526020600020905b81548152906001019060200180831161111e57829003601f168201915b50505050508152505091505b8080611152906129c3565b915050610e7a565b50600060028260400151604051611171919061297d565b9081526020016040518091039020805480602002602001604051908101604052809291908181526020016000905b828210156112c357838290600052602060002090600302016040518060600160405290816000820160009054906101000a900473ffffffffffffffffffffffffffffffffffffffff1673ffffffffffffffffffffffffffffffffffffffff1673ffffffffffffffffffffffffffffffffffffffff16815260200160018201548152602001600282018054611232906128a2565b80601f016020809104026020016040519081016040528092919081815260200182805461125e906128a2565b80156112ab5780601f10611280576101008083540402835291602001916112ab565b820191906000526020600020905b81548152906001019060200180831161128e57829003601f168201915b5050505050815250508152602001906001019061119f565b50505050905060006112d482610711565b905060008060005b8451811015611439578481815181106112f8576112f761291d565b5b602002602001015160400151604051602001611314919061297d565b604051602081830303815290604052805190602001208460405160200161133b919061297d565b6040516020818303038152906040528051906020012014156113f957600085828151811061136c5761136b61291d565b5b6020026020010151600001519050600086838151811061138f5761138e61291d565b5b60200260200101516020015190508173ffffffffffffffffffffffffffffffffffffffff166108fc829081150290604051600060405180830381858888f193505050501580156113e3573d6000803e3d6000fd5b5084806113ef906129c3565b9550505050611426565b84818151811061140c5761140b61291d565b5b602002602001015160200151826114239190612ab7565b91505b8080611431906129c3565b9150506112dc565b50600082826114489190612b3c565b905060005b8551811015611547578581815181106114695761146861291d565b5b602002602001015160400151604051602001611485919061297d565b60405160208183030381529060405280519060200120856040516020016114ac919061297d565b6040516020818303038152906040528051906020012014156115345760008682815181106114dd576114dc61291d565b5b60200260200101516000015190508073ffffffffffffffffffffffffffffffffffffffff166108fc849081150290604051600060405180830381858888f19350505050158015611531573d6000803e3d6000fd5b50505b808061153f906129c3565b91505061144d565b505050505050505050565b6000603c866115619190612b6d565b4261156c9190612ab7565b905060006040518060a001604052808a8a8080601f016020809104026020016040519081016040528093929190818152602001838380828437600081840152601f19601f82011690508083019250505050505050815260200183815260200187878080601f016020809104026020016040519081016040528093929190818152602001838380828437600081840152601f19601f8201169050808301925050505050505081526020013373ffffffffffffffffffffffffffffffffffffffff16815260200185858080601f016020809104026020016040519081016040528093929190818152602001838380828437600081840152601f19601f820116905080830192505050505050508152509050600181908060018154018082558091505060019003906000526020600020906005020160009091909190915060008201518160000190805190602001906116c3929190611b5d565b506020820151816001015560408201518160020190805190602001906116ea929190611b5d565b5060608201518160030160006101000a81548173ffffffffffffffffffffffffffffffffffffffff021916908373ffffffffffffffffffffffffffffffffffffffff160217905550608082015181600401908051906020019061174e929190611b5d565b505050505050505050505050565b60608060005b6001805490508110156118ad57600181815481106117835761178261291d565b5b90600052602060002090600502016002016040516020016117a49190612aa0565b6040516020818303038152906040528051906020012085856040516020016117cd929190612904565b60405160208183030381529060405280519060200120141561189a57600181815481106117fd576117fc61291d565b5b90600052602060002090600502016002018054611819906128a2565b80601f0160208091040260200160405190810160405280929190818152602001828054611845906128a2565b80156118925780601f1061186757610100808354040283529160200191611892565b820191906000526020600020905b81548152906001019060200180831161187557829003601f168201915b505050505091505b80806118a5906129c3565b915050611762565b5060006002826040516118c0919061297d565b9081526020016040518091039020805480602002602001604051908101604052809291908181526020016000905b82821015611a1257838290600052602060002090600302016040518060600160405290816000820160009054906101000a900473ffffffffffffffffffffffffffffffffffffffff1673ffffffffffffffffffffffffffffffffffffffff1673ffffffffffffffffffffffffffffffffffffffff16815260200160018201548152602001600282018054611981906128a2565b80601f01602080910402602001604051908101604052809291908181526020018280546119ad906128a2565b80156119fa5780601f106119cf576101008083540402835291602001916119fa565b820191906000526020600020905b8154815290600101906020018083116119dd57829003601f168201915b505050505081525050815260200190600101906118ee565b505050509050809250505092915050565b600060405180606001604052803373ffffffffffffffffffffffffffffffffffffffff16815260200134815260200186868080601f016020809104026020016040519081016040528093929190818152602001838380828437600081840152601f19601f82011690508083019250505050505050815250905060028383604051611aae929190612904565b908152602001604051809103902081908060018154018082558091505060019003906000526020600020906003020160009091909190915060008201518160000160006101000a81548173ffffffffffffffffffffffffffffffffffffffff021916908373ffffffffffffffffffffffffffffffffffffffff160217905550602082015181600101556040820151816002019080519060200190611b53929190611b5d565b5050505050505050565b828054611b69906128a2565b90600052602060002090601f016020900481019282611b8b5760008555611bd2565b82601f10611ba457805160ff1916838001178555611bd2565b82800160010185558215611bd2579182015b82811115611bd1578251825591602001919060010190611bb6565b5b509050611bdf9190611cae565b5090565b828054611bef906128a2565b90600052602060002090601f016020900481019282611c115760008555611c58565b82601f10611c2a57803560ff1916838001178555611c58565b82800160010185558215611c58579182015b82811115611c57578235825591602001919060010190611c3c565b5b509050611c659190611cae565b5090565b6040518060a00160405280606081526020016000815260200160608152602001600073ffffffffffffffffffffffffffffffffffffffff168152602001606081525090565b5b80821115611cc7576000816000905550600101611caf565b5090565b6000604051905090565b600080fd5b600080fd5b6000819050919050565b611cf281611cdf565b8114611cfd57600080fd5b50565b600081359050611d0f81611ce9565b92915050565b600060208284031215611d2b57611d2a611cd5565b5b6000611d3984828501611d00565b91505092915050565b600081519050919050565b600082825260208201905092915050565b60005b83811015611d7c578082015181840152602081019050611d61565b83811115611d8b576000848401525b50505050565b6000601f19601f8301169050919050565b6000611dad82611d42565b611db78185611d4d565b9350611dc7818560208601611d5e565b611dd081611d91565b840191505092915050565b611de481611cdf565b82525050565b600073ffffffffffffffffffffffffffffffffffffffff82169050919050565b6000611e1582611dea565b9050919050565b611e2581611e0a565b82525050565b600060a0820190508181036000830152611e458188611da2565b9050611e546020830187611ddb565b8181036040830152611e668186611da2565b9050611e756060830185611e1c565b8181036080830152611e878184611da2565b90509695505050505050565b600080fd5b600080fd5b600080fd5b60008083601f840112611eb857611eb7611e93565b5b8235905067ffffffffffffffff811115611ed557611ed4611e98565b5b602083019150836001820283011115611ef157611ef0611e9d565b5b9250929050565b60008060208385031215611f0f57611f0e611cd5565b5b600083013567ffffffffffffffff811115611f2d57611f2c611cda565b5b611f3985828601611ea2565b92509250509250929050565b600081519050919050565b600082825260208201905092915050565b6000819050602082019050919050565b600082825260208201905092915050565b6000611f8d82611d42565b611f978185611f71565b9350611fa7818560208601611d5e565b611fb081611d91565b840191505092915050565b6000611fc78383611f82565b905092915050565b6000602082019050919050565b6000611fe782611f45565b611ff18185611f50565b93508360208202850161200385611f61565b8060005b8581101561203f57848403895281516120208582611fbb565b945061202b83611fcf565b925060208a01995050600181019050612007565b50829750879550505050505092915050565b6000602082019050818103600083015261206b8184611fdc565b905092915050565b600080fd5b7f4e487b7100000000000000000000000000000000000000000000000000000000600052604160045260246000fd5b6120b082611d91565b810181811067ffffffffffffffff821117156120cf576120ce612078565b5b80604052505050565b60006120e2611ccb565b90506120ee82826120a7565b919050565b600067ffffffffffffffff82111561210e5761210d612078565b5b61211782611d91565b9050602081019050919050565b82818337600083830152505050565b6000612146612141846120f3565b6120d8565b90508281526020810184848401111561216257612161612073565b5b61216d848285612124565b509392505050565b600082601f83011261218a57612189611e93565b5b813561219a848260208601612133565b91505092915050565b600080604083850312156121ba576121b9611cd5565b5b600083013567ffffffffffffffff8111156121d8576121d7611cda565b5b6121e485828601612175565b92505060206121f585828601611d00565b9150509250929050565b600061220a82611dea565b9050919050565b61221a816121ff565b82525050565b60006060820190506122356000830186612211565b6122426020830185611ddb565b81810360408301526122548184611da2565b9050949350505050565b600067ffffffffffffffff82111561227957612278612078565b5b602082029050602081019050919050565b600080fd5b600080fd5b61229d816121ff565b81146122a857600080fd5b50565b6000813590506122ba81612294565b92915050565b6000606082840312156122d6576122d561228a565b5b6122e060606120d8565b905060006122f0848285016122ab565b600083015250602061230484828501611d00565b602083015250604082013567ffffffffffffffff8111156123285761232761228f565b5b61233484828501612175565b60408301525092915050565b600061235361234e8461225e565b6120d8565b9050808382526020820190506020840283018581111561237657612375611e9d565b5b835b818110156123bd57803567ffffffffffffffff81111561239b5761239a611e93565b5b8086016123a889826122c0565b85526020850194505050602081019050612378565b5050509392505050565b600082601f8301126123dc576123db611e93565b5b81356123ec848260208601612340565b91505092915050565b60006020828403121561240b5761240a611cd5565b5b600082013567ffffffffffffffff81111561242957612428611cda565b5b612435848285016123c7565b91505092915050565b600060208201905081810360008301526124588184611da2565b905092915050565b600081519050919050565b600082825260208201905092915050565b6000819050602082019050919050565b61249581611cdf565b82525050565b6124a481611e0a565b82525050565b600060a08301600083015184820360008601526124c78282611f82565b91505060208301516124dc602086018261248c565b50604083015184820360408601526124f48282611f82565b9150506060830151612509606086018261249b565b50608083015184820360808601526125218282611f82565b9150508091505092915050565b600061253a83836124aa565b905092915050565b6000602082019050919050565b600061255a82612460565b612564818561246b565b9350836020820285016125768561247c565b8060005b858110156125b25784840389528151612593858261252e565b945061259e83612542565b925060208a0199505060018101905061257a565b50829750879550505050505092915050565b600060208201905081810360008301526125de818461254f565b905092915050565b60008060008060408587031215612600576125ff611cd5565b5b600085013567ffffffffffffffff81111561261e5761261d611cda565b5b61262a87828801611ea2565b9450945050602085013567ffffffffffffffff81111561264d5761264c611cda565b5b61265987828801611ea2565b925092505092959194509250565b60008060008060008060006080888a03121561268657612685611cd5565b5b600088013567ffffffffffffffff8111156126a4576126a3611cda565b5b6126b08a828b01611ea2565b975097505060206126c38a828b01611d00565b955050604088013567ffffffffffffffff8111156126e4576126e3611cda565b5b6126f08a828b01611ea2565b9450945050606088013567ffffffffffffffff81111561271357612712611cda565b5b61271f8a828b01611ea2565b925092505092959891949750929550565b600081519050919050565b600082825260208201905092915050565b6000819050602082019050919050565b612765816121ff565b82525050565b6000606083016000830151612783600086018261275c565b506020830151612796602086018261248c565b50604083015184820360408601526127ae8282611f82565b9150508091505092915050565b60006127c7838361276b565b905092915050565b6000602082019050919050565b60006127e782612730565b6127f1818561273b565b9350836020820285016128038561274c565b8060005b8581101561283f578484038952815161282085826127bb565b945061282b836127cf565b925060208a01995050600181019050612807565b50829750879550505050505092915050565b6000602082019050818103600083015261286b81846127dc565b905092915050565b7f4e487b7100000000000000000000000000000000000000000000000000000000600052602260045260246000fd5b600060028204905060018216806128ba57607f821691505b602082108114156128ce576128cd612873565b5b50919050565b600081905092915050565b60006128eb83856128d4565b93506128f8838584612124565b82840190509392505050565b60006129118284866128df565b91508190509392505050565b7f4e487b7100000000000000000000000000000000000000000000000000000000600052603260045260246000fd5b600061295782611d42565b61296181856128d4565b9350612971818560208601611d5e565b80840191505092915050565b6000612989828461294c565b915081905092915050565b7f4e487b7100000000000000000000000000000000000000000000000000000000600052601160045260246000fd5b60006129ce82611cdf565b91507fffffffffffffffffffffffffffffffffffffffffffffffffffffffffffffffff821415612a0157612a00612994565b5b600182019050919050565b60008190508160005260206000209050919050565b60008154612a2e816128a2565b612a3881866128d4565b94506001821660008114612a535760018114612a6457612a97565b60ff19831686528186019350612a97565b612a6d85612a0c565b60005b83811015612a8f57815481890152600182019150602081019050612a70565b838801955050505b50505092915050565b6000612aac8284612a21565b915081905092915050565b6000612ac282611cdf565b9150612acd83611cdf565b9250827fffffffffffffffffffffffffffffffffffffffffffffffffffffffffffffffff03821115612b0257612b01612994565b5b828201905092915050565b7f4e487b7100000000000000000000000000000000000000000000000000000000600052601260045260246000fd5b6000612b4782611cdf565b9150612b5283611cdf565b925082612b6257612b61612b0d565b5b828204905092915050565b6000612b7882611cdf565b9150612b8383611cdf565b9250817fffffffffffffffffffffffffffffffffffffffffffffffffffffffffffffffff0483118215151615612bbc57612bbb612994565b5b82820290509291505056fea2646970667358221220aaea58eb53e30461e0052c2ef6f1d2d6cb5371914b0e59b6cd76974b124d9e8164736f6c63430008080033",
  "linkReferences": {},
  "deployedLinkReferences": {}
}