{
  "_format": "hh-sol-artifact-1",
  "contractName": "ContestD",
  "sourceName": "contracts/ContestD.sol",
  "abi": [
    {
      "inputs": [
        {
          "internalType": "string",
          "name": "playbackId",
          "type": "string"
        },
        {
          "internalType": "string",
          "name": "contestName",
          "type": "string"
        }
      ],
      "name": "addVideosInContest",
      "outputs": [],
      "stateMutability": "nonpayable",
      "type": "function"
    },
    {
      "inputs": [
        {
          "internalType": "uint256",
          "name": "",
          "type": "uint256"
        }
      ],
      "name": "allContest",
      "outputs": [
        {
          "internalType": "string",
          "name": "startTime",
          "type": "string"
        },
        {
          "internalType": "uint256",
          "name": "endTime",
          "type": "uint256"
        },
        {
          "internalType": "string",
          "name": "name",
          "type": "string"
        },
        {
          "internalType": "address",
          "name": "creator",
          "type": "address"
        },
        {
          "internalType": "string",
          "name": "desc",
          "type": "string"
        }
      ],
      "stateMutability": "view",
      "type": "function"
    },
    {
      "inputs": [
        {
          "internalType": "string",
          "name": "",
          "type": "string"
        },
        {
          "internalType": "uint256",
          "name": "",
          "type": "uint256"
        }
      ],
      "name": "allContestsDonations",
      "outputs": [
        {
          "internalType": "address payable",
          "name": "user",
          "type": "address"
        },
        {
          "internalType": "uint256",
          "name": "amount",
          "type": "uint256"
        },
        {
          "internalType": "string",
          "name": "playbackId",
          "type": "string"
        }
      ],
      "stateMutability": "view",
      "type": "function"
    },
    {
      "inputs": [
        {
          "components": [
            {
              "internalType": "address payable",
              "name": "user",
              "type": "address"
            },
            {
              "internalType": "uint256",
              "name": "amount",
              "type": "uint256"
            },
            {
              "internalType": "string",
              "name": "playbackId",
              "type": "string"
            }
          ],
          "internalType": "struct ContestD.ContestDonation[]",
          "name": "contestDonations",
          "type": "tuple[]"
        }
      ],
      "name": "checkWinner",
      "outputs": [
        {
          "internalType": "string",
          "name": "",
          "type": "string"
        }
      ],
      "stateMutability": "nonpayable",
      "type": "function"
    },
    {
      "inputs": [
        {
          "internalType": "string",
          "name": "",
          "type": "string"
        },
        {
          "internalType": "uint256",
          "name": "",
          "type": "uint256"
        }
      ],
      "name": "contestEndMap",
      "outputs": [
        {
          "internalType": "address payable",
          "name": "user",
          "type": "address"
        },
        {
          "internalType": "uint256",
          "name": "amount",
          "type": "uint256"
        },
        {
          "internalType": "string",
          "name": "playbackId",
          "type": "string"
        }
      ],
      "stateMutability": "view",
      "type": "function"
    },
    {
      "inputs": [
        {
          "internalType": "string",
          "name": "",
          "type": "string"
        },
        {
          "internalType": "uint256",
          "name": "",
          "type": "uint256"
        }
      ],
      "name": "contestVideos",
      "outputs": [
        {
          "internalType": "string",
          "name": "",
          "type": "string"
        }
      ],
      "stateMutability": "view",
      "type": "function"
    },
    {
      "inputs": [
        {
          "internalType": "string",
          "name": "startTime",
          "type": "string"
        },
        {
          "internalType": "uint256",
          "name": "duration",
          "type": "uint256"
        },
        {
          "internalType": "string",
          "name": "name",
          "type": "string"
        },
        {
          "internalType": "string",
          "name": "desc",
          "type": "string"
        }
      ],
      "name": "createContest",
      "outputs": [],
      "stateMutability": "nonpayable",
      "type": "function"
    },
    {
      "inputs": [],
      "name": "fetchAllContests",
      "outputs": [
        {
          "components": [
            {
              "internalType": "string",
              "name": "startTime",
              "type": "string"
            },
            {
              "internalType": "uint256",
              "name": "endTime",
              "type": "uint256"
            },
            {
              "internalType": "string",
              "name": "name",
              "type": "string"
            },
            {
              "internalType": "address",
              "name": "creator",
              "type": "address"
            },
            {
              "internalType": "string",
              "name": "desc",
              "type": "string"
            }
          ],
          "internalType": "struct ContestD.Contest[]",
          "name": "",
          "type": "tuple[]"
        }
      ],
      "stateMutability": "view",
      "type": "function"
    },
    {
      "inputs": [
        {
          "internalType": "string",
          "name": "name",
          "type": "string"
        }
      ],
      "name": "fetchContestDonations",
      "outputs": [
        {
          "components": [
            {
              "internalType": "address payable",
              "name": "user",
              "type": "address"
            },
            {
              "internalType": "uint256",
              "name": "amount",
              "type": "uint256"
            },
            {
              "internalType": "string",
              "name": "playbackId",
              "type": "string"
            }
          ],
          "internalType": "struct ContestD.ContestDonation[]",
          "name": "",
          "type": "tuple[]"
        }
      ],
      "stateMutability": "view",
      "type": "function"
    },
    {
      "inputs": [
        {
          "internalType": "string",
          "name": "contestName",
          "type": "string"
        }
      ],
      "name": "getVideosInContest",
      "outputs": [
        {
          "internalType": "string[]",
          "name": "",
          "type": "string[]"
        }
      ],
      "stateMutability": "view",
      "type": "function"
    },
    {
      "inputs": [
        {
          "internalType": "string",
          "name": "contestName",
          "type": "string"
        }
      ],
      "name": "releaseFunds",
      "outputs": [],
      "stateMutability": "payable",
      "type": "function"
    },
    {
      "inputs": [
        {
          "internalType": "string",
          "name": "key",
          "type": "string"
        },
        {
          "internalType": "string",
          "name": "contestName",
          "type": "string"
        }
      ],
      "name": "stakeInContest",
      "outputs": [],
      "stateMutability": "payable",
      "type": "function"
    }
  ],
  "bytecode": "0x608060405234801561001057600080fd5b50612ce5806100206000396000f3fe6080604052600436106100a75760003560e01c80638b553f0f116100645780638b553f0f146101fa578063ac6744d714610239578063c3abd8b314610276578063cae594bb14610292578063d4ca6576146102bb578063f214727f146102f8576100a7565b806304432d4b146100ac5780632e192468146100ed57806332e8fcc61461012a578063565780c21461016957806363196f5e146101a6578063794c87cb146101d1575b600080fd5b3480156100b857600080fd5b506100d360048036038101906100ce9190611dfd565b610314565b6040516100e4959493929190611f13565b60405180910390f35b3480156100f957600080fd5b50610114600480360381019061010f9190611fe0565b610512565b6040516101219190612139565b60405180910390f35b34801561013657600080fd5b50610151600480360381019061014c919061228b565b61060c565b60405161016093929190612308565b60405180910390f35b34801561017557600080fd5b50610190600480360381019061018b91906124dd565b610711565b60405161019d9190612526565b60405180910390f35b3480156101b257600080fd5b506101bb6109c4565b6040516101c891906126ac565b60405180910390f35b3480156101dd57600080fd5b506101f860048036038101906101f391906126ce565b610c39565b005b34801561020657600080fd5b50610221600480360381019061021c919061228b565b610c9b565b60405161023093929190612308565b60405180910390f35b34801561024557600080fd5b50610260600480360381019061025b919061228b565b610da0565b60405161026d9190612526565b60405180910390f35b610290600480360381019061028b9190611fe0565b610e6f565b005b34801561029e57600080fd5b506102b960048036038101906102b4919061274f565b611580565b005b3480156102c757600080fd5b506102e260048036038101906102dd9190611fe0565b61178a565b6040516102ef9190612939565b60405180910390f35b610312600480360381019061030d91906126ce565b611a51565b005b6001818154811061032457600080fd5b90600052602060002090600502016000915090508060000180546103479061298a565b80601f01602080910402602001604051908101604052809291908181526020018280546103739061298a565b80156103c05780601f10610395576101008083540402835291602001916103c0565b820191906000526020600020905b8154815290600101906020018083116103a357829003601f168201915b5050505050908060010154908060020180546103db9061298a565b80601f01602080910402602001604051908101604052809291908181526020018280546104079061298a565b80156104545780601f1061042957610100808354040283529160200191610454565b820191906000526020600020905b81548152906001019060200180831161043757829003601f168201915b5050505050908060030160009054906101000a900473ffffffffffffffffffffffffffffffffffffffff169080600401805461048f9061298a565b80601f01602080910402602001604051908101604052809291908181526020018280546104bb9061298a565b80156105085780601f106104dd57610100808354040283529160200191610508565b820191906000526020600020905b8154815290600101906020018083116104eb57829003601f168201915b5050505050905085565b6060600083836040516105269291906129ec565b9081526020016040518091039020805480602002602001604051908101604052809291908181526020016000905b828210156106005783829060005260206000200180546105739061298a565b80601f016020809104026020016040519081016040528092919081815260200182805461059f9061298a565b80156105ec5780601f106105c1576101008083540402835291602001916105ec565b820191906000526020600020905b8154815290600101906020018083116105cf57829003601f168201915b505050505081526020019060010190610554565b50505050905092915050565b600382805160208101820180518482526020830160208501208183528095505050505050818154811061063e57600080fd5b9060005260206000209060030201600091509150508060000160009054906101000a900473ffffffffffffffffffffffffffffffffffffffff169080600101549080600201805461068e9061298a565b80601f01602080910402602001604051908101604052809291908181526020018280546106ba9061298a565b80156107075780601f106106dc57610100808354040283529160200191610707565b820191906000526020600020905b8154815290600101906020018083116106ea57829003601f168201915b5050505050905083565b6060806000805b845181101561082457600385828151811061073657610735612a05565b5b60200260200101516040015160405161074f9190612a65565b90815260200160405180910390208582815181106107705761076f612a05565b5b6020026020010151908060018154018082558091505060019003906000526020600020906003020160009091909190915060008201518160000160006101000a81548173ffffffffffffffffffffffffffffffffffffffff021916908373ffffffffffffffffffffffffffffffffffffffff16021790555060208201518160010155604082015181600201908051906020019061080e929190611b8b565b505050808061081c90612aab565b915050610718565b5060005b84518110156109b95781600386838151811061084757610846612a05565b5b6020026020010151604001516040516108609190612a65565b90815260200160405180910390208054905011156109a657600385828151811061088d5761088c612a05565b5b6020026020010151604001516040516108a69190612a65565b908152602001604051809103902080549050915060038582815181106108cf576108ce612a05565b5b6020026020010151604001516040516108e89190612a65565b908152602001604051809103902060008154811061090957610908612a05565b5b906000526020600020906003020160020180546109259061298a565b80601f01602080910402602001604051908101604052809291908181526020018280546109519061298a565b801561099e5780601f106109735761010080835404028352916020019161099e565b820191906000526020600020905b81548152906001019060200180831161098157829003601f168201915b505050505092505b80806109b190612aab565b915050610828565b508192505050919050565b60606001805480602002602001604051908101604052809291908181526020016000905b82821015610c3057838290600052602060002090600502016040518060a0016040529081600082018054610a1b9061298a565b80601f0160208091040260200160405190810160405280929190818152602001828054610a479061298a565b8015610a945780601f10610a6957610100808354040283529160200191610a94565b820191906000526020600020905b815481529060010190602001808311610a7757829003601f168201915b5050505050815260200160018201548152602001600282018054610ab79061298a565b80601f0160208091040260200160405190810160405280929190818152602001828054610ae39061298a565b8015610b305780601f10610b0557610100808354040283529160200191610b30565b820191906000526020600020905b815481529060010190602001808311610b1357829003601f168201915b505050505081526020016003820160009054906101000a900473ffffffffffffffffffffffffffffffffffffffff1673ffffffffffffffffffffffffffffffffffffffff1673ffffffffffffffffffffffffffffffffffffffff168152602001600482018054610b9f9061298a565b80601f0160208091040260200160405190810160405280929190818152602001828054610bcb9061298a565b8015610c185780601f10610bed57610100808354040283529160200191610c18565b820191906000526020600020905b815481529060010190602001808311610bfb57829003601f168201915b505050505081525050815260200190600101906109e8565b50505050905090565b60008282604051610c4b9291906129ec565b9081526020016040518091039020848490918060018154018082558091505060019003906000526020600020016000909192909192909192909192509190610c94929190611c11565b5050505050565b6002828051602081018201805184825260208301602085012081835280955050505050508181548110610ccd57600080fd5b9060005260206000209060030201600091509150508060000160009054906101000a900473ffffffffffffffffffffffffffffffffffffffff1690806001015490806002018054610d1d9061298a565b80601f0160208091040260200160405190810160405280929190818152602001828054610d499061298a565b8015610d965780601f10610d6b57610100808354040283529160200191610d96565b820191906000526020600020905b815481529060010190602001808311610d7957829003601f168201915b5050505050905083565b6000828051602081018201805184825260208301602085012081835280955050505050508181548110610dd257600080fd5b90600052602060002001600091509150508054610dee9061298a565b80601f0160208091040260200160405190810160405280929190818152602001828054610e1a9061298a565b8015610e675780601f10610e3c57610100808354040283529160200191610e67565b820191906000526020600020905b815481529060010190602001808311610e4a57829003601f168201915b505050505081565b610e77611c97565b60005b60018054905081101561115a5760018181548110610e9b57610e9a612a05565b5b9060005260206000209060050201600201604051602001610ebc9190612b88565b604051602081830303815290604052805190602001208484604051602001610ee59291906129ec565b6040516020818303038152906040528051906020012014156111475760018181548110610f1557610f14612a05565b5b90600052602060002090600502016040518060a0016040529081600082018054610f3e9061298a565b80601f0160208091040260200160405190810160405280929190818152602001828054610f6a9061298a565b8015610fb75780601f10610f8c57610100808354040283529160200191610fb7565b820191906000526020600020905b815481529060010190602001808311610f9a57829003601f168201915b5050505050815260200160018201548152602001600282018054610fda9061298a565b80601f01602080910402602001604051908101604052809291908181526020018280546110069061298a565b80156110535780601f1061102857610100808354040283529160200191611053565b820191906000526020600020905b81548152906001019060200180831161103657829003601f168201915b505050505081526020016003820160009054906101000a900473ffffffffffffffffffffffffffffffffffffffff1673ffffffffffffffffffffffffffffffffffffffff1673ffffffffffffffffffffffffffffffffffffffff1681526020016004820180546110c29061298a565b80601f01602080910402602001604051908101604052809291908181526020018280546110ee9061298a565b801561113b5780601f106111105761010080835404028352916020019161113b565b820191906000526020600020905b81548152906001019060200180831161111e57829003601f168201915b50505050508152505091505b808061115290612aab565b915050610e7a565b506000600282604001516040516111719190612a65565b9081526020016040518091039020805480602002602001604051908101604052809291908181526020016000905b828210156112c357838290600052602060002090600302016040518060600160405290816000820160009054906101000a900473ffffffffffffffffffffffffffffffffffffffff1673ffffffffffffffffffffffffffffffffffffffff1673ffffffffffffffffffffffffffffffffffffffff168152602001600182015481526020016002820180546112329061298a565b80601f016020809104026020016040519081016040528092919081815260200182805461125e9061298a565b80156112ab5780601f10611280576101008083540402835291602001916112ab565b820191906000526020600020905b81548152906001019060200180831161128e57829003601f168201915b5050505050815250508152602001906001019061119f565b50505050905060006112d482610711565b905060008060005b8451811015611439578481815181106112f8576112f7612a05565b5b6020026020010151604001516040516020016113149190612a65565b604051602081830303815290604052805190602001208460405160200161133b9190612a65565b6040516020818303038152906040528051906020012014156113f957600085828151811061136c5761136b612a05565b5b6020026020010151600001519050600086838151811061138f5761138e612a05565b5b60200260200101516020015190508173ffffffffffffffffffffffffffffffffffffffff166108fc829081150290604051600060405180830381858888f193505050501580156113e3573d6000803e3d6000fd5b5084806113ef90612aab565b9550505050611426565b84818151811061140c5761140b612a05565b5b602002602001015160200151826114239190612b9f565b91505b808061143190612aab565b9150506112dc565b50600082826114489190612c24565b905060005b85518110156115475785818151811061146957611468612a05565b5b6020026020010151604001516040516020016114859190612a65565b60405160208183030381529060405280519060200120856040516020016114ac9190612a65565b6040516020818303038152906040528051906020012014156115345760008682815181106114dd576114dc612a05565b5b60200260200101516000015190508073ffffffffffffffffffffffffffffffffffffffff166108fc849081150290604051600060405180830381858888f19350505050158015611531573d6000803e3d6000fd5b50505b808061153f90612aab565b91505061144d565b506002866040015160405161155c9190612a65565b908152602001604051809103902060006115769190611cdc565b5050505050505050565b6000603c8661158f9190612c55565b4261159a9190612b9f565b905060006040518060a001604052808a8a8080601f016020809104026020016040519081016040528093929190818152602001838380828437600081840152601f19601f82011690508083019250505050505050815260200183815260200187878080601f016020809104026020016040519081016040528093929190818152602001838380828437600081840152601f19601f8201169050808301925050505050505081526020013373ffffffffffffffffffffffffffffffffffffffff16815260200185858080601f016020809104026020016040519081016040528093929190818152602001838380828437600081840152601f19601f820116905080830192505050505050508152509050600181908060018154018082558091505060019003906000526020600020906005020160009091909190915060008201518160000190805190602001906116f1929190611b8b565b50602082015181600101556040820151816002019080519060200190611718929190611b8b565b5060608201518160030160006101000a81548173ffffffffffffffffffffffffffffffffffffffff021916908373ffffffffffffffffffffffffffffffffffffffff160217905550608082015181600401908051906020019061177c929190611b8b565b505050505050505050505050565b60608060005b6001805490508110156118db57600181815481106117b1576117b0612a05565b5b90600052602060002090600502016002016040516020016117d29190612b88565b6040516020818303038152906040528051906020012085856040516020016117fb9291906129ec565b6040516020818303038152906040528051906020012014156118c8576001818154811061182b5761182a612a05565b5b906000526020600020906005020160020180546118479061298a565b80601f01602080910402602001604051908101604052809291908181526020018280546118739061298a565b80156118c05780601f10611895576101008083540402835291602001916118c0565b820191906000526020600020905b8154815290600101906020018083116118a357829003601f168201915b505050505091505b80806118d390612aab565b915050611790565b5060006002826040516118ee9190612a65565b9081526020016040518091039020805480602002602001604051908101604052809291908181526020016000905b82821015611a4057838290600052602060002090600302016040518060600160405290816000820160009054906101000a900473ffffffffffffffffffffffffffffffffffffffff1673ffffffffffffffffffffffffffffffffffffffff1673ffffffffffffffffffffffffffffffffffffffff168152602001600182015481526020016002820180546119af9061298a565b80601f01602080910402602001604051908101604052809291908181526020018280546119db9061298a565b8015611a285780601f106119fd57610100808354040283529160200191611a28565b820191906000526020600020905b815481529060010190602001808311611a0b57829003601f168201915b5050505050815250508152602001906001019061191c565b505050509050809250505092915050565b600060405180606001604052803373ffffffffffffffffffffffffffffffffffffffff16815260200134815260200186868080601f016020809104026020016040519081016040528093929190818152602001838380828437600081840152601f19601f82011690508083019250505050505050815250905060028383604051611adc9291906129ec565b908152602001604051809103902081908060018154018082558091505060019003906000526020600020906003020160009091909190915060008201518160000160006101000a81548173ffffffffffffffffffffffffffffffffffffffff021916908373ffffffffffffffffffffffffffffffffffffffff160217905550602082015181600101556040820151816002019080519060200190611b81929190611b8b565b5050505050505050565b828054611b979061298a565b90600052602060002090601f016020900481019282611bb95760008555611c00565b82601f10611bd257805160ff1916838001178555611c00565b82800160010185558215611c00579182015b82811115611bff578251825591602001919060010190611be4565b5b509050611c0d9190611d00565b5090565b828054611c1d9061298a565b90600052602060002090601f016020900481019282611c3f5760008555611c86565b82601f10611c5857803560ff1916838001178555611c86565b82800160010185558215611c86579182015b82811115611c85578235825591602001919060010190611c6a565b5b509050611c939190611d00565b5090565b6040518060a00160405280606081526020016000815260200160608152602001600073ffffffffffffffffffffffffffffffffffffffff168152602001606081525090565b5080546000825560030290600052602060002090810190611cfd9190611d1d565b50565b5b80821115611d19576000816000905550600101611d01565b5090565b5b80821115611d6f57600080820160006101000a81549073ffffffffffffffffffffffffffffffffffffffff02191690556001820160009055600282016000611d669190611d73565b50600301611d1e565b5090565b508054611d7f9061298a565b6000825580601f10611d915750611db0565b601f016020900490600052602060002090810190611daf9190611d00565b5b50565b6000604051905090565b600080fd5b600080fd5b6000819050919050565b611dda81611dc7565b8114611de557600080fd5b50565b600081359050611df781611dd1565b92915050565b600060208284031215611e1357611e12611dbd565b5b6000611e2184828501611de8565b91505092915050565b600081519050919050565b600082825260208201905092915050565b60005b83811015611e64578082015181840152602081019050611e49565b83811115611e73576000848401525b50505050565b6000601f19601f8301169050919050565b6000611e9582611e2a565b611e9f8185611e35565b9350611eaf818560208601611e46565b611eb881611e79565b840191505092915050565b611ecc81611dc7565b82525050565b600073ffffffffffffffffffffffffffffffffffffffff82169050919050565b6000611efd82611ed2565b9050919050565b611f0d81611ef2565b82525050565b600060a0820190508181036000830152611f2d8188611e8a565b9050611f3c6020830187611ec3565b8181036040830152611f4e8186611e8a565b9050611f5d6060830185611f04565b8181036080830152611f6f8184611e8a565b90509695505050505050565b600080fd5b600080fd5b600080fd5b60008083601f840112611fa057611f9f611f7b565b5b8235905067ffffffffffffffff811115611fbd57611fbc611f80565b5b602083019150836001820283011115611fd957611fd8611f85565b5b9250929050565b60008060208385031215611ff757611ff6611dbd565b5b600083013567ffffffffffffffff81111561201557612014611dc2565b5b61202185828601611f8a565b92509250509250929050565b600081519050919050565b600082825260208201905092915050565b6000819050602082019050919050565b600082825260208201905092915050565b600061207582611e2a565b61207f8185612059565b935061208f818560208601611e46565b61209881611e79565b840191505092915050565b60006120af838361206a565b905092915050565b6000602082019050919050565b60006120cf8261202d565b6120d98185612038565b9350836020820285016120eb85612049565b8060005b85811015612127578484038952815161210885826120a3565b9450612113836120b7565b925060208a019950506001810190506120ef565b50829750879550505050505092915050565b6000602082019050818103600083015261215381846120c4565b905092915050565b600080fd5b7f4e487b7100000000000000000000000000000000000000000000000000000000600052604160045260246000fd5b61219882611e79565b810181811067ffffffffffffffff821117156121b7576121b6612160565b5b80604052505050565b60006121ca611db3565b90506121d6828261218f565b919050565b600067ffffffffffffffff8211156121f6576121f5612160565b5b6121ff82611e79565b9050602081019050919050565b82818337600083830152505050565b600061222e612229846121db565b6121c0565b90508281526020810184848401111561224a5761224961215b565b5b61225584828561220c565b509392505050565b600082601f83011261227257612271611f7b565b5b813561228284826020860161221b565b91505092915050565b600080604083850312156122a2576122a1611dbd565b5b600083013567ffffffffffffffff8111156122c0576122bf611dc2565b5b6122cc8582860161225d565b92505060206122dd85828601611de8565b9150509250929050565b60006122f282611ed2565b9050919050565b612302816122e7565b82525050565b600060608201905061231d60008301866122f9565b61232a6020830185611ec3565b818103604083015261233c8184611e8a565b9050949350505050565b600067ffffffffffffffff82111561236157612360612160565b5b602082029050602081019050919050565b600080fd5b600080fd5b612385816122e7565b811461239057600080fd5b50565b6000813590506123a28161237c565b92915050565b6000606082840312156123be576123bd612372565b5b6123c860606121c0565b905060006123d884828501612393565b60008301525060206123ec84828501611de8565b602083015250604082013567ffffffffffffffff8111156124105761240f612377565b5b61241c8482850161225d565b60408301525092915050565b600061243b61243684612346565b6121c0565b9050808382526020820190506020840283018581111561245e5761245d611f85565b5b835b818110156124a557803567ffffffffffffffff81111561248357612482611f7b565b5b80860161249089826123a8565b85526020850194505050602081019050612460565b5050509392505050565b600082601f8301126124c4576124c3611f7b565b5b81356124d4848260208601612428565b91505092915050565b6000602082840312156124f3576124f2611dbd565b5b600082013567ffffffffffffffff81111561251157612510611dc2565b5b61251d848285016124af565b91505092915050565b600060208201905081810360008301526125408184611e8a565b905092915050565b600081519050919050565b600082825260208201905092915050565b6000819050602082019050919050565b61257d81611dc7565b82525050565b61258c81611ef2565b82525050565b600060a08301600083015184820360008601526125af828261206a565b91505060208301516125c46020860182612574565b50604083015184820360408601526125dc828261206a565b91505060608301516125f16060860182612583565b5060808301518482036080860152612609828261206a565b9150508091505092915050565b60006126228383612592565b905092915050565b6000602082019050919050565b600061264282612548565b61264c8185612553565b93508360208202850161265e85612564565b8060005b8581101561269a578484038952815161267b8582612616565b94506126868361262a565b925060208a01995050600181019050612662565b50829750879550505050505092915050565b600060208201905081810360008301526126c68184612637565b905092915050565b600080600080604085870312156126e8576126e7611dbd565b5b600085013567ffffffffffffffff81111561270657612705611dc2565b5b61271287828801611f8a565b9450945050602085013567ffffffffffffffff81111561273557612734611dc2565b5b61274187828801611f8a565b925092505092959194509250565b60008060008060008060006080888a03121561276e5761276d611dbd565b5b600088013567ffffffffffffffff81111561278c5761278b611dc2565b5b6127988a828b01611f8a565b975097505060206127ab8a828b01611de8565b955050604088013567ffffffffffffffff8111156127cc576127cb611dc2565b5b6127d88a828b01611f8a565b9450945050606088013567ffffffffffffffff8111156127fb576127fa611dc2565b5b6128078a828b01611f8a565b925092505092959891949750929550565b600081519050919050565b600082825260208201905092915050565b6000819050602082019050919050565b61284d816122e7565b82525050565b600060608301600083015161286b6000860182612844565b50602083015161287e6020860182612574565b5060408301518482036040860152612896828261206a565b9150508091505092915050565b60006128af8383612853565b905092915050565b6000602082019050919050565b60006128cf82612818565b6128d98185612823565b9350836020820285016128eb85612834565b8060005b85811015612927578484038952815161290885826128a3565b9450612913836128b7565b925060208a019950506001810190506128ef565b50829750879550505050505092915050565b6000602082019050818103600083015261295381846128c4565b905092915050565b7f4e487b7100000000000000000000000000000000000000000000000000000000600052602260045260246000fd5b600060028204905060018216806129a257607f821691505b602082108114156129b6576129b561295b565b5b50919050565b600081905092915050565b60006129d383856129bc565b93506129e083858461220c565b82840190509392505050565b60006129f98284866129c7565b91508190509392505050565b7f4e487b7100000000000000000000000000000000000000000000000000000000600052603260045260246000fd5b6000612a3f82611e2a565b612a4981856129bc565b9350612a59818560208601611e46565b80840191505092915050565b6000612a718284612a34565b915081905092915050565b7f4e487b7100000000000000000000000000000000000000000000000000000000600052601160045260246000fd5b6000612ab682611dc7565b91507fffffffffffffffffffffffffffffffffffffffffffffffffffffffffffffffff821415612ae957612ae8612a7c565b5b600182019050919050565b60008190508160005260206000209050919050565b60008154612b168161298a565b612b2081866129bc565b94506001821660008114612b3b5760018114612b4c57612b7f565b60ff19831686528186019350612b7f565b612b5585612af4565b60005b83811015612b7757815481890152600182019150602081019050612b58565b838801955050505b50505092915050565b6000612b948284612b09565b915081905092915050565b6000612baa82611dc7565b9150612bb583611dc7565b9250827fffffffffffffffffffffffffffffffffffffffffffffffffffffffffffffffff03821115612bea57612be9612a7c565b5b828201905092915050565b7f4e487b7100000000000000000000000000000000000000000000000000000000600052601260045260246000fd5b6000612c2f82611dc7565b9150612c3a83611dc7565b925082612c4a57612c49612bf5565b5b828204905092915050565b6000612c6082611dc7565b9150612c6b83611dc7565b9250817fffffffffffffffffffffffffffffffffffffffffffffffffffffffffffffffff0483118215151615612ca457612ca3612a7c565b5b82820290509291505056fea26469706673582212201539a477e1816584232a4f2a85f44dffffea653e2c0f2677ab56ed4e78aa307964736f6c63430008080033",
  "linkReferences": {},
  "deployedLinkReferences": {}
}