{
  "_format": "hh-sol-artifact-1",
  "contractName": "Stream",
  "sourceName": "contracts/Stream.sol",
  "abi": [
    {
      "inputs": [],
      "stateMutability": "nonpayable",
      "type": "constructor"
    },
    {
      "inputs": [
        {
          "internalType": "address",
          "name": "",
          "type": "address"
        },
        {
          "internalType": "uint256",
          "name": "",
          "type": "uint256"
        }
      ],
      "name": "VMap",
      "outputs": [
        {
          "internalType": "string",
          "name": "videoKey",
          "type": "string"
        },
        {
          "internalType": "string",
          "name": "type_",
          "type": "string"
        }
      ],
      "stateMutability": "view",
      "type": "function"
    },
    {
      "inputs": [
        {
          "internalType": "string",
          "name": "",
          "type": "string"
        },
        {
          "internalType": "uint256",
          "name": "",
          "type": "uint256"
        }
      ],
      "name": "VideoDonations",
      "outputs": [
        {
          "internalType": "address payable",
          "name": "client",
          "type": "address"
        },
        {
          "internalType": "uint256",
          "name": "amount",
          "type": "uint256"
        },
        {
          "internalType": "string",
          "name": "message",
          "type": "string"
        }
      ],
      "stateMutability": "view",
      "type": "function"
    },
    {
      "inputs": [
        {
          "internalType": "string",
          "name": "key",
          "type": "string"
        },
        {
          "internalType": "string",
          "name": "message",
          "type": "string"
        }
      ],
      "name": "addDonations",
      "outputs": [],
      "stateMutability": "payable",
      "type": "function"
    },
    {
      "inputs": [
        {
          "internalType": "string",
          "name": "key",
          "type": "string"
        },
        {
          "internalType": "string",
          "name": "type_",
          "type": "string"
        }
      ],
      "name": "addVideo",
      "outputs": [],
      "stateMutability": "nonpayable",
      "type": "function"
    },
    {
      "inputs": [
        {
          "internalType": "string",
          "name": "key",
          "type": "string"
        }
      ],
      "name": "checkKey",
      "outputs": [
        {
          "internalType": "bool",
          "name": "",
          "type": "bool"
        }
      ],
      "stateMutability": "view",
      "type": "function"
    },
    {
      "inputs": [
        {
          "internalType": "address",
          "name": "userAddress",
          "type": "address"
        }
      ],
      "name": "getAllVideosOfCreator",
      "outputs": [
        {
          "components": [
            {
              "internalType": "string",
              "name": "videoKey",
              "type": "string"
            },
            {
              "internalType": "string",
              "name": "type_",
              "type": "string"
            }
          ],
          "internalType": "struct Stream.Video[]",
          "name": "",
          "type": "tuple[]"
        }
      ],
      "stateMutability": "view",
      "type": "function"
    },
    {
      "inputs": [
        {
          "internalType": "string",
          "name": "key",
          "type": "string"
        }
      ],
      "name": "getDonations",
      "outputs": [
        {
          "components": [
            {
              "internalType": "address payable",
              "name": "client",
              "type": "address"
            },
            {
              "internalType": "uint256",
              "name": "amount",
              "type": "uint256"
            },
            {
              "internalType": "string",
              "name": "message",
              "type": "string"
            }
          ],
          "internalType": "struct Stream.Donation[]",
          "name": "",
          "type": "tuple[]"
        }
      ],
      "stateMutability": "view",
      "type": "function"
    },
    {
      "inputs": [],
      "name": "getRegularVideos",
      "outputs": [
        {
          "components": [
            {
              "internalType": "string",
              "name": "key",
              "type": "string"
            },
            {
              "internalType": "address payable",
              "name": "creator",
              "type": "address"
            }
          ],
          "internalType": "struct Stream.VideoD[]",
          "name": "",
          "type": "tuple[]"
        }
      ],
      "stateMutability": "view",
      "type": "function"
    },
    {
      "inputs": [],
      "name": "getStreamVideos",
      "outputs": [
        {
          "components": [
            {
              "internalType": "string",
              "name": "key",
              "type": "string"
            },
            {
              "internalType": "address payable",
              "name": "creator",
              "type": "address"
            }
          ],
          "internalType": "struct Stream.VideoD[]",
          "name": "",
          "type": "tuple[]"
        }
      ],
      "stateMutability": "view",
      "type": "function"
    },
    {
      "inputs": [
        {
          "internalType": "string",
          "name": "key",
          "type": "string"
        }
      ],
      "name": "getVideoCreator",
      "outputs": [
        {
          "internalType": "address",
          "name": "",
          "type": "address"
        }
      ],
      "stateMutability": "view",
      "type": "function"
    },
    {
      "inputs": [],
      "name": "owner",
      "outputs": [
        {
          "internalType": "address",
          "name": "",
          "type": "address"
        }
      ],
      "stateMutability": "view",
      "type": "function"
    },
    {
      "inputs": [
        {
          "internalType": "uint256",
          "name": "",
          "type": "uint256"
        }
      ],
      "name": "regularVideoD",
      "outputs": [
        {
          "internalType": "string",
          "name": "key",
          "type": "string"
        },
        {
          "internalType": "address payable",
          "name": "creator",
          "type": "address"
        }
      ],
      "stateMutability": "view",
      "type": "function"
    },
    {
      "inputs": [
        {
          "internalType": "string",
          "name": "key",
          "type": "string"
        }
      ],
      "name": "releaseFunds",
      "outputs": [],
      "stateMutability": "nonpayable",
      "type": "function"
    },
    {
      "inputs": [
        {
          "internalType": "uint256",
          "name": "",
          "type": "uint256"
        }
      ],
      "name": "streamVideoD",
      "outputs": [
        {
          "internalType": "string",
          "name": "key",
          "type": "string"
        },
        {
          "internalType": "address payable",
          "name": "creator",
          "type": "address"
        }
      ],
      "stateMutability": "view",
      "type": "function"
    },
    {
      "inputs": [
        {
          "internalType": "uint256",
          "name": "",
          "type": "uint256"
        }
      ],
      "name": "videoKeys",
      "outputs": [
        {
          "internalType": "string",
          "name": "",
          "type": "string"
        }
      ],
      "stateMutability": "view",
      "type": "function"
    }
  ],
  "bytecode": "0x60806040526000805534801561001457600080fd5b5033600160006101000a81548173ffffffffffffffffffffffffffffffffffffffff021916908373ffffffffffffffffffffffffffffffffffffffff160217905550612797806100656000396000f3fe6080604052600436106100e85760003560e01c80637986dae11161008a578063af490bc711610059578063af490bc714610335578063b625a62814610360578063bd2efc7a1461039e578063c3abd8b3146103dd576100e8565b80637986dae1146102515780638273ad451461028f5780638da5cb5b146102cc578063a734e42c146102f7576100e8565b806336f153be116100c657806336f153be1461017e5780634923100e1461019a57806355413662146101d757806376db5f7014610214576100e8565b806307a8366b146100ed5780630dbd9bdc146101185780631cd251d814610141575b600080fd5b3480156100f957600080fd5b50610102610406565b60405161010f9190611c9b565b60405180910390f35b34801561012457600080fd5b5061013f600480360381019061013a9190611d36565b61054d565b005b34801561014d57600080fd5b5061016860048036038101906101639190611db7565b6108ca565b6040516101759190611f2f565b60405180910390f35b61019860048036038101906101939190611d36565b610a3c565b005b3480156101a657600080fd5b506101c160048036038101906101bc9190611db7565b610bcc565b6040516101ce9190611f6c565b60405180910390f35b3480156101e357600080fd5b506101fe60048036038101906101f99190611fc5565b610c7d565b60405161020b91906120f8565b60405180910390f35b34801561022057600080fd5b5061023b60048036038101906102369190612146565b610e3f565b60405161024891906121bd565b60405180910390f35b34801561025d57600080fd5b50610278600480360381019061027391906121df565b610eeb565b60405161028692919061221f565b60405180910390f35b34801561029b57600080fd5b506102b660048036038101906102b19190611db7565b61103c565b6040516102c39190612265565b60405180910390f35b3480156102d857600080fd5b506102e1611220565b6040516102ee9190612265565b60405180910390f35b34801561030357600080fd5b5061031e60048036038101906103199190612146565b611246565b60405161032c92919061228f565b60405180910390f35b34801561034157600080fd5b5061034a611322565b6040516103579190611c9b565b60405180910390f35b34801561036c57600080fd5b5061038760048036038101906103829190612146565b611469565b60405161039592919061228f565b60405180910390f35b3480156103aa57600080fd5b506103c560048036038101906103c091906123ef565b611545565b6040516103d49392919061245a565b60405180910390f35b3480156103e957600080fd5b5061040460048036038101906103ff9190611db7565b61164a565b005b60606003805480602002602001604051908101604052809291908181526020016000905b82821015610544578382906000526020600020906002020160405180604001604052908160008201805461045d906124c7565b80601f0160208091040260200160405190810160405280929190818152602001828054610489906124c7565b80156104d65780601f106104ab576101008083540402835291602001916104d6565b820191906000526020600020905b8154815290600101906020018083116104b957829003601f168201915b505050505081526020016001820160009054906101000a900473ffffffffffffffffffffffffffffffffffffffff1673ffffffffffffffffffffffffffffffffffffffff1673ffffffffffffffffffffffffffffffffffffffff16815250508152602001906001019061042a565b50505050905090565b6000604051806040016040528086868080601f016020809104026020016040519081016040528093929190818152602001838380828437600081840152601f19601f82011690508083019250505050505050815260200184848080601f016020809104026020016040519081016040528093929190818152602001838380828437600081840152601f19601f820116905080830192505050505050508152509050600460003373ffffffffffffffffffffffffffffffffffffffff1673ffffffffffffffffffffffffffffffffffffffff16815260200190815260200160002081908060018154018082558091505060019003906000526020600020906002020160009091909190915060008201518160000190805190602001906106739291906118df565b5060208201518160010190805190602001906106909291906118df565b50505060068585909180600181540180825580915050600190039060005260206000200160009091929091929091929091925091906106d0929190611965565b506000604051806040016040528087878080601f016020809104026020016040519081016040528093929190818152602001838380828437600081840152601f19601f8201169050808301925050505050505081526020013373ffffffffffffffffffffffffffffffffffffffff16815250905060405160200161075390612550565b60405160208183030381529060405280519060200120848460405160200161077c92919061258a565b60405160208183030381529060405280519060200120141561082f57600281908060018154018082558091505060019003906000526020600020906002020160009091909190915060008201518160000190805190602001906107e09291906118df565b5060208201518160010160006101000a81548173ffffffffffffffffffffffffffffffffffffffff021916908373ffffffffffffffffffffffffffffffffffffffff16021790555050506108c2565b600381908060018154018082558091505060019003906000526020600020906002020160009091909190915060008201518160000190805190602001906108779291906118df565b5060208201518160010160006101000a81548173ffffffffffffffffffffffffffffffffffffffff021916908373ffffffffffffffffffffffffffffffffffffffff16021790555050505b505050505050565b6060600583836040516108de92919061258a565b9081526020016040518091039020805480602002602001604051908101604052809291908181526020016000905b82821015610a3057838290600052602060002090600302016040518060600160405290816000820160009054906101000a900473ffffffffffffffffffffffffffffffffffffffff1673ffffffffffffffffffffffffffffffffffffffff1673ffffffffffffffffffffffffffffffffffffffff1681526020016001820154815260200160028201805461099f906124c7565b80601f01602080910402602001604051908101604052809291908181526020018280546109cb906124c7565b8015610a185780601f106109ed57610100808354040283529160200191610a18565b820191906000526020600020905b8154815290600101906020018083116109fb57829003601f168201915b5050505050815250508152602001906001019061090c565b50505050905092915050565b600060405180606001604052803373ffffffffffffffffffffffffffffffffffffffff16815260200134815260200184848080601f016020809104026020016040519081016040528093929190818152602001838380828437600081840152601f19601f82011690508083019250505050505050815250905060058585604051610ac792919061258a565b908152602001604051809103902081908060018154018082558091505060019003906000526020600020906003020160009091909190915060008201518160000160006101000a81548173ffffffffffffffffffffffffffffffffffffffff021916908373ffffffffffffffffffffffffffffffffffffffff160217905550602082015181600101556040820151816002019080519060200190610b6c9291906118df565b5050506000610b7b868661103c565b90508073ffffffffffffffffffffffffffffffffffffffff166108fc349081150290604051600060405180830381858888f19350505050158015610bc3573d6000803e3d6000fd5b50505050505050565b600080600090505b600680549050811015610c71578383604051602001610bf492919061258a565b6040516020818303038152906040528051906020012060068281548110610c1e57610c1d6125a3565b5b90600052602060002001604051602001610c389190612666565b604051602081830303815290604052805190602001201415610c5e576001915050610c77565b8080610c69906126ac565b915050610bd4565b50600090505b92915050565b6060600460008373ffffffffffffffffffffffffffffffffffffffff1673ffffffffffffffffffffffffffffffffffffffff168152602001908152602001600020805480602002602001604051908101604052809291908181526020016000905b82821015610e345783829060005260206000209060020201604051806040016040529081600082018054610d11906124c7565b80601f0160208091040260200160405190810160405280929190818152602001828054610d3d906124c7565b8015610d8a5780601f10610d5f57610100808354040283529160200191610d8a565b820191906000526020600020905b815481529060010190602001808311610d6d57829003601f168201915b50505050508152602001600182018054610da3906124c7565b80601f0160208091040260200160405190810160405280929190818152602001828054610dcf906124c7565b8015610e1c5780601f10610df157610100808354040283529160200191610e1c565b820191906000526020600020905b815481529060010190602001808311610dff57829003601f168201915b50505050508152505081526020019060010190610cde565b505050509050919050565b60068181548110610e4f57600080fd5b906000526020600020016000915090508054610e6a906124c7565b80601f0160208091040260200160405190810160405280929190818152602001828054610e96906124c7565b8015610ee35780601f10610eb857610100808354040283529160200191610ee3565b820191906000526020600020905b815481529060010190602001808311610ec657829003601f168201915b505050505081565b60046020528160005260406000208181548110610f0757600080fd5b906000526020600020906002020160009150915050806000018054610f2b906124c7565b80601f0160208091040260200160405190810160405280929190818152602001828054610f57906124c7565b8015610fa45780601f10610f7957610100808354040283529160200191610fa4565b820191906000526020600020905b815481529060010190602001808311610f8757829003601f168201915b505050505090806001018054610fb9906124c7565b80601f0160208091040260200160405190810160405280929190818152602001828054610fe5906124c7565b80156110325780601f1061100757610100808354040283529160200191611032565b820191906000526020600020905b81548152906001019060200180831161101557829003601f168201915b5050505050905082565b600080600090505b60028054905081101561112c57838360405160200161106492919061258a565b604051602081830303815290604052805190602001206002828154811061108e5761108d6125a3565b5b90600052602060002090600202016000016040516020016110af9190612666565b60405160208183030381529060405280519060200120141561111957600281815481106110df576110de6125a3565b5b906000526020600020906002020160010160009054906101000a900473ffffffffffffffffffffffffffffffffffffffff1691505061121a565b8080611124906126ac565b915050611044565b5060005b60038054905081101561121857838360405160200161115092919061258a565b604051602081830303815290604052805190602001206003828154811061117a576111796125a3565b5b906000526020600020906002020160000160405160200161119b9190612666565b60405160208183030381529060405280519060200120141561120557600381815481106111cb576111ca6125a3565b5b906000526020600020906002020160010160009054906101000a900473ffffffffffffffffffffffffffffffffffffffff1691505061121a565b8080611210906126ac565b915050611130565b505b92915050565b600160009054906101000a900473ffffffffffffffffffffffffffffffffffffffff1681565b6003818154811061125657600080fd5b9060005260206000209060020201600091509050806000018054611279906124c7565b80601f01602080910402602001604051908101604052809291908181526020018280546112a5906124c7565b80156112f25780601f106112c7576101008083540402835291602001916112f2565b820191906000526020600020905b8154815290600101906020018083116112d557829003601f168201915b5050505050908060010160009054906101000a900473ffffffffffffffffffffffffffffffffffffffff16905082565b60606002805480602002602001604051908101604052809291908181526020016000905b828210156114605783829060005260206000209060020201604051806040016040529081600082018054611379906124c7565b80601f01602080910402602001604051908101604052809291908181526020018280546113a5906124c7565b80156113f25780601f106113c7576101008083540402835291602001916113f2565b820191906000526020600020905b8154815290600101906020018083116113d557829003601f168201915b505050505081526020016001820160009054906101000a900473ffffffffffffffffffffffffffffffffffffffff1673ffffffffffffffffffffffffffffffffffffffff1673ffffffffffffffffffffffffffffffffffffffff168152505081526020019060010190611346565b50505050905090565b6002818154811061147957600080fd5b906000526020600020906002020160009150905080600001805461149c906124c7565b80601f01602080910402602001604051908101604052809291908181526020018280546114c8906124c7565b80156115155780601f106114ea57610100808354040283529160200191611515565b820191906000526020600020905b8154815290600101906020018083116114f857829003601f168201915b5050505050908060010160009054906101000a900473ffffffffffffffffffffffffffffffffffffffff16905082565b600582805160208101820180518482526020830160208501208183528095505050505050818154811061157757600080fd5b9060005260206000209060030201600091509150508060000160009054906101000a900473ffffffffffffffffffffffffffffffffffffffff16908060010154908060020180546115c7906124c7565b80601f01602080910402602001604051908101604052809291908181526020018280546115f3906124c7565b80156116405780601f1061161557610100808354040283529160200191611640565b820191906000526020600020905b81548152906001019060200180831161162357829003601f168201915b5050505050905083565b6116548282610bcc565b611693576040517f08c379a000000000000000000000000000000000000000000000000000000000815260040161168a90612741565b60405180910390fd5b6000600583836040516116a792919061258a565b9081526020016040518091039020805480602002602001604051908101604052809291908181526020016000905b828210156117f957838290600052602060002090600302016040518060600160405290816000820160009054906101000a900473ffffffffffffffffffffffffffffffffffffffff1673ffffffffffffffffffffffffffffffffffffffff1673ffffffffffffffffffffffffffffffffffffffff16815260200160018201548152602001600282018054611768906124c7565b80601f0160208091040260200160405190810160405280929190818152602001828054611794906124c7565b80156117e15780601f106117b6576101008083540402835291602001916117e1565b820191906000526020600020905b8154815290600101906020018083116117c457829003601f168201915b505050505081525050815260200190600101906116d5565b50505050905060005b81518110156118ad5760008282815181106118205761181f6125a3565b5b60200260200101516000015190506000838381518110611843576118426125a3565b5b60200260200101516020015190508173ffffffffffffffffffffffffffffffffffffffff166108fc829081150290604051600060405180830381858888f19350505050158015611897573d6000803e3d6000fd5b50505080806118a5906126ac565b915050611802565b50600583836040516118c092919061258a565b908152602001604051809103902060006118da91906119eb565b505050565b8280546118eb906124c7565b90600052602060002090601f01602090048101928261190d5760008555611954565b82601f1061192657805160ff1916838001178555611954565b82800160010185558215611954579182015b82811115611953578251825591602001919060010190611938565b5b5090506119619190611a0f565b5090565b828054611971906124c7565b90600052602060002090601f01602090048101928261199357600085556119da565b82601f106119ac57803560ff19168380011785556119da565b828001600101855582156119da579182015b828111156119d95782358255916020019190600101906119be565b5b5090506119e79190611a0f565b5090565b5080546000825560030290600052602060002090810190611a0c9190611a2c565b50565b5b80821115611a28576000816000905550600101611a10565b5090565b5b80821115611a7e57600080820160006101000a81549073ffffffffffffffffffffffffffffffffffffffff02191690556001820160009055600282016000611a759190611a82565b50600301611a2d565b5090565b508054611a8e906124c7565b6000825580601f10611aa05750611abf565b601f016020900490600052602060002090810190611abe9190611a0f565b5b50565b600081519050919050565b600082825260208201905092915050565b6000819050602082019050919050565b600081519050919050565b600082825260208201905092915050565b60005b83811015611b28578082015181840152602081019050611b0d565b83811115611b37576000848401525b50505050565b6000601f19601f8301169050919050565b6000611b5982611aee565b611b638185611af9565b9350611b73818560208601611b0a565b611b7c81611b3d565b840191505092915050565b600073ffffffffffffffffffffffffffffffffffffffff82169050919050565b6000611bb282611b87565b9050919050565b611bc281611ba7565b82525050565b60006040830160008301518482036000860152611be58282611b4e565b9150506020830151611bfa6020860182611bb9565b508091505092915050565b6000611c118383611bc8565b905092915050565b6000602082019050919050565b6000611c3182611ac2565b611c3b8185611acd565b935083602082028501611c4d85611ade565b8060005b85811015611c895784840389528151611c6a8582611c05565b9450611c7583611c19565b925060208a01995050600181019050611c51565b50829750879550505050505092915050565b60006020820190508181036000830152611cb58184611c26565b905092915050565b6000604051905090565b600080fd5b600080fd5b600080fd5b600080fd5b600080fd5b60008083601f840112611cf657611cf5611cd1565b5b8235905067ffffffffffffffff811115611d1357611d12611cd6565b5b602083019150836001820283011115611d2f57611d2e611cdb565b5b9250929050565b60008060008060408587031215611d5057611d4f611cc7565b5b600085013567ffffffffffffffff811115611d6e57611d6d611ccc565b5b611d7a87828801611ce0565b9450945050602085013567ffffffffffffffff811115611d9d57611d9c611ccc565b5b611da987828801611ce0565b925092505092959194509250565b60008060208385031215611dce57611dcd611cc7565b5b600083013567ffffffffffffffff811115611dec57611deb611ccc565b5b611df885828601611ce0565b92509250509250929050565b600081519050919050565b600082825260208201905092915050565b6000819050602082019050919050565b6000819050919050565b611e4381611e30565b82525050565b6000606083016000830151611e616000860182611bb9565b506020830151611e746020860182611e3a565b5060408301518482036040860152611e8c8282611b4e565b9150508091505092915050565b6000611ea58383611e49565b905092915050565b6000602082019050919050565b6000611ec582611e04565b611ecf8185611e0f565b935083602082028501611ee185611e20565b8060005b85811015611f1d5784840389528151611efe8582611e99565b9450611f0983611ead565b925060208a01995050600181019050611ee5565b50829750879550505050505092915050565b60006020820190508181036000830152611f498184611eba565b905092915050565b60008115159050919050565b611f6681611f51565b82525050565b6000602082019050611f816000830184611f5d565b92915050565b6000611f9282611b87565b9050919050565b611fa281611f87565b8114611fad57600080fd5b50565b600081359050611fbf81611f99565b92915050565b600060208284031215611fdb57611fda611cc7565b5b6000611fe984828501611fb0565b91505092915050565b600081519050919050565b600082825260208201905092915050565b6000819050602082019050919050565b6000604083016000830151848203600086015261203b8282611b4e565b915050602083015184820360208601526120558282611b4e565b9150508091505092915050565b600061206e838361201e565b905092915050565b6000602082019050919050565b600061208e82611ff2565b6120988185611ffd565b9350836020820285016120aa8561200e565b8060005b858110156120e657848403895281516120c78582612062565b94506120d283612076565b925060208a019950506001810190506120ae565b50829750879550505050505092915050565b600060208201905081810360008301526121128184612083565b905092915050565b61212381611e30565b811461212e57600080fd5b50565b6000813590506121408161211a565b92915050565b60006020828403121561215c5761215b611cc7565b5b600061216a84828501612131565b91505092915050565b600082825260208201905092915050565b600061218f82611aee565b6121998185612173565b93506121a9818560208601611b0a565b6121b281611b3d565b840191505092915050565b600060208201905081810360008301526121d78184612184565b905092915050565b600080604083850312156121f6576121f5611cc7565b5b600061220485828601611fb0565b925050602061221585828601612131565b9150509250929050565b600060408201905081810360008301526122398185612184565b9050818103602083015261224d8184612184565b90509392505050565b61225f81611f87565b82525050565b600060208201905061227a6000830184612256565b92915050565b61228981611ba7565b82525050565b600060408201905081810360008301526122a98185612184565b90506122b86020830184612280565b9392505050565b600080fd5b7f4e487b7100000000000000000000000000000000000000000000000000000000600052604160045260246000fd5b6122fc82611b3d565b810181811067ffffffffffffffff8211171561231b5761231a6122c4565b5b80604052505050565b600061232e611cbd565b905061233a82826122f3565b919050565b600067ffffffffffffffff82111561235a576123596122c4565b5b61236382611b3d565b9050602081019050919050565b82818337600083830152505050565b600061239261238d8461233f565b612324565b9050828152602081018484840111156123ae576123ad6122bf565b5b6123b9848285612370565b509392505050565b600082601f8301126123d6576123d5611cd1565b5b81356123e684826020860161237f565b91505092915050565b6000806040838503121561240657612405611cc7565b5b600083013567ffffffffffffffff81111561242457612423611ccc565b5b612430858286016123c1565b925050602061244185828601612131565b9150509250929050565b61245481611e30565b82525050565b600060608201905061246f6000830186612280565b61247c602083018561244b565b818103604083015261248e8184612184565b9050949350505050565b7f4e487b7100000000000000000000000000000000000000000000000000000000600052602260045260246000fd5b600060028204905060018216806124df57607f821691505b602082108114156124f3576124f2612498565b5b50919050565b600081905092915050565b7f726567756c617200000000000000000000000000000000000000000000000000600082015250565b600061253a6007836124f9565b915061254582612504565b600782019050919050565b600061255b8261252d565b9150819050919050565b600061257183856124f9565b935061257e838584612370565b82840190509392505050565b6000612597828486612565565b91508190509392505050565b7f4e487b7100000000000000000000000000000000000000000000000000000000600052603260045260246000fd5b60008190508160005260206000209050919050565b600081546125f4816124c7565b6125fe81866124f9565b94506001821660008114612619576001811461262a5761265d565b60ff1983168652818601935061265d565b612633856125d2565b60005b8381101561265557815481890152600182019150602081019050612636565b838801955050505b50505092915050565b600061267282846125e7565b915081905092915050565b7f4e487b7100000000000000000000000000000000000000000000000000000000600052601160045260246000fd5b60006126b782611e30565b91507fffffffffffffffffffffffffffffffffffffffffffffffffffffffffffffffff8214156126ea576126e961267d565b5b600182019050919050565b7f5468697320566964656f206973206e6f74207265676973746572640000000000600082015250565b600061272b601b83612173565b9150612736826126f5565b602082019050919050565b6000602082019050818103600083015261275a8161271e565b905091905056fea2646970667358221220816a1a79ba36fb2ad0695b7b30c23c1686df5507f3f8b2c639842e119863543e64736f6c63430008080033",
  "linkReferences": {},
  "deployedLinkReferences": {}
}