{
    "_format": "hh-sol-artifact-1",
    "contractName": "ContestD",
    "sourceName": "contracts/ContestD.sol",
    "abi": [
        {
            "inputs": [
                {
                    "internalType": "string",
                    "name": "playbackId",
                    "type": "string"
                },
                {
                    "internalType": "string",
                    "name": "contestName",
                    "type": "string"
                }
            ],
            "name": "addVideosInContest",
            "outputs": [],
            "stateMutability": "nonpayable",
            "type": "function"
        },
        {
            "inputs": [
                {
                    "components": [
                        {
                            "internalType": "address payable",
                            "name": "user",
                            "type": "address"
                        },
                        {
                            "internalType": "uint256",
                            "name": "amount",
                            "type": "uint256"
                        },
                        {
                            "internalType": "string",
                            "name": "playbackId",
                            "type": "string"
                        }
                    ],
                    "internalType": "struct ContestD.ContestDonation[]",
                    "name": "contestDonations",
                    "type": "tuple[]"
                }
            ],
            "name": "checkWinner",
            "outputs": [
                {
                    "internalType": "string",
                    "name": "",
                    "type": "string"
                }
            ],
            "stateMutability": "nonpayable",
            "type": "function"
        },
        {
            "inputs": [
                {
                    "internalType": "string",
                    "name": "startTime",
                    "type": "string"
                },
                {
                    "internalType": "uint256",
                    "name": "duration",
                    "type": "uint256"
                },
                {
                    "internalType": "string",
                    "name": "name",
                    "type": "string"
                }
            ],
            "name": "createContest",
            "outputs": [],
            "stateMutability": "nonpayable",
            "type": "function"
        },
        {
            "inputs": [],
            "name": "fetchAllContests",
            "outputs": [
                {
                    "components": [
                        {
                            "internalType": "string",
                            "name": "startTime",
                            "type": "string"
                        },
                        {
                            "internalType": "uint256",
                            "name": "endTime",
                            "type": "uint256"
                        },
                        {
                            "internalType": "string",
                            "name": "name",
                            "type": "string"
                        },
                        {
                            "internalType": "address",
                            "name": "creator",
                            "type": "address"
                        }
                    ],
                    "internalType": "struct ContestD.Contest[]",
                    "name": "",
                    "type": "tuple[]"
                }
            ],
            "stateMutability": "view",
            "type": "function"
        },
        {
            "inputs": [
                {
                    "internalType": "string",
                    "name": "name",
                    "type": "string"
                }
            ],
            "name": "fetchContestDonations",
            "outputs": [
                {
                    "components": [
                        {
                            "internalType": "address payable",
                            "name": "user",
                            "type": "address"
                        },
                        {
                            "internalType": "uint256",
                            "name": "amount",
                            "type": "uint256"
                        },
                        {
                            "internalType": "string",
                            "name": "playbackId",
                            "type": "string"
                        }
                    ],
                    "internalType": "struct ContestD.ContestDonation[]",
                    "name": "",
                    "type": "tuple[]"
                }
            ],
            "stateMutability": "view",
            "type": "function"
        },
        {
            "inputs": [
                {
                    "internalType": "string",
                    "name": "contestName",
                    "type": "string"
                }
            ],
            "name": "getVideosInContest",
            "outputs": [
                {
                    "internalType": "string[]",
                    "name": "",
                    "type": "string[]"
                }
            ],
            "stateMutability": "view",
            "type": "function"
        },
        {
            "inputs": [
                {
                    "internalType": "string",
                    "name": "contestName",
                    "type": "string"
                }
            ],
            "name": "releaseFunds",
            "outputs": [],
            "stateMutability": "payable",
            "type": "function"
        },
        {
            "inputs": [
                {
                    "internalType": "string",
                    "name": "key",
                    "type": "string"
                },
                {
                    "internalType": "string",
                    "name": "contestName",
                    "type": "string"
                }
            ],
            "name": "stakeInContest",
            "outputs": [],
            "stateMutability": "payable",
            "type": "function"
        }
    ],
    "bytecode": "0x608060405234801561001057600080fd5b506122c0806100206000396000f3fe60806040526004361061007b5760003560e01c8063c3abd8b31161004e578063c3abd8b31461014e578063d4ca65761461016a578063f214727f146101a7578063fe1a7896146101c35761007b565b80632e19246814610080578063565780c2146100bd57806363196f5e146100fa578063794c87cb14610125575b600080fd5b34801561008c57600080fd5b506100a760048036038101906100a291906115b1565b6101ec565b6040516100b49190611759565b60405180910390f35b3480156100c957600080fd5b506100e460048036038101906100df9190611aaa565b6102e6565b6040516100f19190611b3d565b60405180910390f35b34801561010657600080fd5b5061010f610599565b60405161011c9190611cbb565b60405180910390f35b34801561013157600080fd5b5061014c60048036038101906101479190611cdd565b61077c565b005b610168600480360381019061016391906115b1565b6107de565b005b34801561017657600080fd5b50610191600480360381019061018c91906115b1565b610e2f565b60405161019e9190611e7f565b60405180910390f35b6101c160048036038101906101bc9190611cdd565b6110f6565b005b3480156101cf57600080fd5b506101ea60048036038101906101e59190611ea1565b611230565b005b606060008383604051610200929190611f66565b9081526020016040518091039020805480602002602001604051908101604052809291908181526020016000905b828210156102da57838290600052602060002001805461024d90611fae565b80601f016020809104026020016040519081016040528092919081815260200182805461027990611fae565b80156102c65780601f1061029b576101008083540402835291602001916102c6565b820191906000526020600020905b8154815290600101906020018083116102a957829003601f168201915b50505050508152602001906001019061022e565b50505050905092915050565b6060806000805b84518110156103f957600385828151811061030b5761030a611fe0565b5b6020026020010151604001516040516103249190612040565b908152602001604051809103902085828151811061034557610344611fe0565b5b6020026020010151908060018154018082558091505060019003906000526020600020906003020160009091909190915060008201518160000160006101000a81548173ffffffffffffffffffffffffffffffffffffffff021916908373ffffffffffffffffffffffffffffffffffffffff1602179055506020820151816001015560408201518160020190805190602001906103e39291906113d1565b50505080806103f190612086565b9150506102ed565b5060005b845181101561058e5781600386838151811061041c5761041b611fe0565b5b6020026020010151604001516040516104359190612040565b908152602001604051809103902080549050111561057b57600385828151811061046257610461611fe0565b5b60200260200101516040015160405161047b9190612040565b908152602001604051809103902080549050915060038582815181106104a4576104a3611fe0565b5b6020026020010151604001516040516104bd9190612040565b90815260200160405180910390206000815481106104de576104dd611fe0565b5b906000526020600020906003020160020180546104fa90611fae565b80601f016020809104026020016040519081016040528092919081815260200182805461052690611fae565b80156105735780601f1061054857610100808354040283529160200191610573565b820191906000526020600020905b81548152906001019060200180831161055657829003601f168201915b505050505092505b808061058690612086565b9150506103fd565b508192505050919050565b60606001805480602002602001604051908101604052809291908181526020016000905b8282101561077357838290600052602060002090600402016040518060800160405290816000820180546105f090611fae565b80601f016020809104026020016040519081016040528092919081815260200182805461061c90611fae565b80156106695780601f1061063e57610100808354040283529160200191610669565b820191906000526020600020905b81548152906001019060200180831161064c57829003601f168201915b505050505081526020016001820154815260200160028201805461068c90611fae565b80601f01602080910402602001604051908101604052809291908181526020018280546106b890611fae565b80156107055780601f106106da57610100808354040283529160200191610705565b820191906000526020600020905b8154815290600101906020018083116106e857829003601f168201915b505050505081526020016003820160009054906101000a900473ffffffffffffffffffffffffffffffffffffffff1673ffffffffffffffffffffffffffffffffffffffff1673ffffffffffffffffffffffffffffffffffffffff1681525050815260200190600101906105bd565b50505050905090565b6000828260405161078e929190611f66565b90815260200160405180910390208484909180600181540180825580915050600190039060005260206000200160009091929091929091929091925091906107d7929190611457565b5050505050565b6107e66114dd565b60005b600180549050811015610a37576001818154811061080a57610809611fe0565b5b906000526020600020906004020160020160405160200161082b9190612163565b604051602081830303815290604052805190602001208484604051602001610854929190611f66565b604051602081830303815290604052805190602001201415610a24576001818154811061088457610883611fe0565b5b90600052602060002090600402016040518060800160405290816000820180546108ad90611fae565b80601f01602080910402602001604051908101604052809291908181526020018280546108d990611fae565b80156109265780601f106108fb57610100808354040283529160200191610926565b820191906000526020600020905b81548152906001019060200180831161090957829003601f168201915b505050505081526020016001820154815260200160028201805461094990611fae565b80601f016020809104026020016040519081016040528092919081815260200182805461097590611fae565b80156109c25780601f10610997576101008083540402835291602001916109c2565b820191906000526020600020905b8154815290600101906020018083116109a557829003601f168201915b505050505081526020016003820160009054906101000a900473ffffffffffffffffffffffffffffffffffffffff1673ffffffffffffffffffffffffffffffffffffffff1673ffffffffffffffffffffffffffffffffffffffff168152505091505b8080610a2f90612086565b9150506107e9565b50600060028260400151604051610a4e9190612040565b9081526020016040518091039020805480602002602001604051908101604052809291908181526020016000905b82821015610ba057838290600052602060002090600302016040518060600160405290816000820160009054906101000a900473ffffffffffffffffffffffffffffffffffffffff1673ffffffffffffffffffffffffffffffffffffffff1673ffffffffffffffffffffffffffffffffffffffff16815260200160018201548152602001600282018054610b0f90611fae565b80601f0160208091040260200160405190810160405280929190818152602001828054610b3b90611fae565b8015610b885780601f10610b5d57610100808354040283529160200191610b88565b820191906000526020600020905b815481529060010190602001808311610b6b57829003601f168201915b50505050508152505081526020019060010190610a7c565b5050505090506000610bb1826102e6565b905060008060005b8451811015610d1657848181518110610bd557610bd4611fe0565b5b602002602001015160400151604051602001610bf19190612040565b6040516020818303038152906040528051906020012084604051602001610c189190612040565b604051602081830303815290604052805190602001201415610cd6576000858281518110610c4957610c48611fe0565b5b60200260200101516000015190506000868381518110610c6c57610c6b611fe0565b5b60200260200101516020015190508173ffffffffffffffffffffffffffffffffffffffff166108fc829081150290604051600060405180830381858888f19350505050158015610cc0573d6000803e3d6000fd5b508480610ccc90612086565b9550505050610d03565b848181518110610ce957610ce8611fe0565b5b60200260200101516020015182610d00919061217a565b91505b8080610d0e90612086565b915050610bb9565b5060008282610d2591906121ff565b905060005b8551811015610e2457858181518110610d4657610d45611fe0565b5b602002602001015160400151604051602001610d629190612040565b6040516020818303038152906040528051906020012085604051602001610d899190612040565b604051602081830303815290604052805190602001201415610e11576000868281518110610dba57610db9611fe0565b5b60200260200101516000015190508073ffffffffffffffffffffffffffffffffffffffff166108fc849081150290604051600060405180830381858888f19350505050158015610e0e573d6000803e3d6000fd5b50505b8080610e1c90612086565b915050610d2a565b505050505050505050565b60608060005b600180549050811015610f805760018181548110610e5657610e55611fe0565b5b9060005260206000209060040201600201604051602001610e779190612163565b604051602081830303815290604052805190602001208585604051602001610ea0929190611f66565b604051602081830303815290604052805190602001201415610f6d5760018181548110610ed057610ecf611fe0565b5b90600052602060002090600402016002018054610eec90611fae565b80601f0160208091040260200160405190810160405280929190818152602001828054610f1890611fae565b8015610f655780601f10610f3a57610100808354040283529160200191610f65565b820191906000526020600020905b815481529060010190602001808311610f4857829003601f168201915b505050505091505b8080610f7890612086565b915050610e35565b506000600282604051610f939190612040565b9081526020016040518091039020805480602002602001604051908101604052809291908181526020016000905b828210156110e557838290600052602060002090600302016040518060600160405290816000820160009054906101000a900473ffffffffffffffffffffffffffffffffffffffff1673ffffffffffffffffffffffffffffffffffffffff1673ffffffffffffffffffffffffffffffffffffffff1681526020016001820154815260200160028201805461105490611fae565b80601f016020809104026020016040519081016040528092919081815260200182805461108090611fae565b80156110cd5780601f106110a2576101008083540402835291602001916110cd565b820191906000526020600020905b8154815290600101906020018083116110b057829003601f168201915b50505050508152505081526020019060010190610fc1565b505050509050809250505092915050565b600060405180606001604052803373ffffffffffffffffffffffffffffffffffffffff16815260200134815260200186868080601f016020809104026020016040519081016040528093929190818152602001838380828437600081840152601f19601f82011690508083019250505050505050815250905060028383604051611181929190611f66565b908152602001604051809103902081908060018154018082558091505060019003906000526020600020906003020160009091909190915060008201518160000160006101000a81548173ffffffffffffffffffffffffffffffffffffffff021916908373ffffffffffffffffffffffffffffffffffffffff1602179055506020820151816001015560408201518160020190805190602001906112269291906113d1565b5050505050505050565b6000603c8461123f9190612230565b4261124a919061217a565b90506000604051806080016040528088888080601f016020809104026020016040519081016040528093929190818152602001838380828437600081840152601f19601f82011690508083019250505050505050815260200183815260200185858080601f016020809104026020016040519081016040528093929190818152602001838380828437600081840152601f19601f8201169050808301925050505050505081526020013373ffffffffffffffffffffffffffffffffffffffff168152509050600181908060018154018082558091505060019003906000526020600020906004020160009091909190915060008201518160000190805190602001906113579291906113d1565b5060208201518160010155604082015181600201908051906020019061137e9291906113d1565b5060608201518160030160006101000a81548173ffffffffffffffffffffffffffffffffffffffff021916908373ffffffffffffffffffffffffffffffffffffffff160217905550505050505050505050565b8280546113dd90611fae565b90600052602060002090601f0160209004810192826113ff5760008555611446565b82601f1061141857805160ff1916838001178555611446565b82800160010185558215611446579182015b8281111561144557825182559160200191906001019061142a565b5b509050611453919061151b565b5090565b82805461146390611fae565b90600052602060002090601f01602090048101928261148557600085556114cc565b82601f1061149e57803560ff19168380011785556114cc565b828001600101855582156114cc579182015b828111156114cb5782358255916020019190600101906114b0565b5b5090506114d9919061151b565b5090565b6040518060800160405280606081526020016000815260200160608152602001600073ffffffffffffffffffffffffffffffffffffffff1681525090565b5b8082111561153457600081600090555060010161151c565b5090565b6000604051905090565b600080fd5b600080fd5b600080fd5b600080fd5b600080fd5b60008083601f8401126115715761157061154c565b5b8235905067ffffffffffffffff81111561158e5761158d611551565b5b6020830191508360018202830111156115aa576115a9611556565b5b9250929050565b600080602083850312156115c8576115c7611542565b5b600083013567ffffffffffffffff8111156115e6576115e5611547565b5b6115f28582860161155b565b92509250509250929050565b600081519050919050565b600082825260208201905092915050565b6000819050602082019050919050565b600081519050919050565b600082825260208201905092915050565b60005b83811015611664578082015181840152602081019050611649565b83811115611673576000848401525b50505050565b6000601f19601f8301169050919050565b60006116958261162a565b61169f8185611635565b93506116af818560208601611646565b6116b881611679565b840191505092915050565b60006116cf838361168a565b905092915050565b6000602082019050919050565b60006116ef826115fe565b6116f98185611609565b93508360208202850161170b8561161a565b8060005b85811015611747578484038952815161172885826116c3565b9450611733836116d7565b925060208a0199505060018101905061170f565b50829750879550505050505092915050565b6000602082019050818103600083015261177381846116e4565b905092915050565b7f4e487b7100000000000000000000000000000000000000000000000000000000600052604160045260246000fd5b6117b382611679565b810181811067ffffffffffffffff821117156117d2576117d161177b565b5b80604052505050565b60006117e5611538565b90506117f182826117aa565b919050565b600067ffffffffffffffff8211156118115761181061177b565b5b602082029050602081019050919050565b600080fd5b600080fd5b600073ffffffffffffffffffffffffffffffffffffffff82169050919050565b60006118578261182c565b9050919050565b6118678161184c565b811461187257600080fd5b50565b6000813590506118848161185e565b92915050565b6000819050919050565b61189d8161188a565b81146118a857600080fd5b50565b6000813590506118ba81611894565b92915050565b600080fd5b600067ffffffffffffffff8211156118e0576118df61177b565b5b6118e982611679565b9050602081019050919050565b82818337600083830152505050565b6000611918611913846118c5565b6117db565b905082815260208101848484011115611934576119336118c0565b5b61193f8482856118f6565b509392505050565b600082601f83011261195c5761195b61154c565b5b813561196c848260208601611905565b91505092915050565b60006060828403121561198b5761198a611822565b5b61199560606117db565b905060006119a584828501611875565b60008301525060206119b9848285016118ab565b602083015250604082013567ffffffffffffffff8111156119dd576119dc611827565b5b6119e984828501611947565b60408301525092915050565b6000611a08611a03846117f6565b6117db565b90508083825260208201905060208402830185811115611a2b57611a2a611556565b5b835b81811015611a7257803567ffffffffffffffff811115611a5057611a4f61154c565b5b808601611a5d8982611975565b85526020850194505050602081019050611a2d565b5050509392505050565b600082601f830112611a9157611a9061154c565b5b8135611aa18482602086016119f5565b91505092915050565b600060208284031215611ac057611abf611542565b5b600082013567ffffffffffffffff811115611ade57611add611547565b5b611aea84828501611a7c565b91505092915050565b600082825260208201905092915050565b6000611b0f8261162a565b611b198185611af3565b9350611b29818560208601611646565b611b3281611679565b840191505092915050565b60006020820190508181036000830152611b578184611b04565b905092915050565b600081519050919050565b600082825260208201905092915050565b6000819050602082019050919050565b611b948161188a565b82525050565b6000611ba58261182c565b9050919050565b611bb581611b9a565b82525050565b60006080830160008301518482036000860152611bd8828261168a565b9150506020830151611bed6020860182611b8b565b5060408301518482036040860152611c05828261168a565b9150506060830151611c1a6060860182611bac565b508091505092915050565b6000611c318383611bbb565b905092915050565b6000602082019050919050565b6000611c5182611b5f565b611c5b8185611b6a565b935083602082028501611c6d85611b7b565b8060005b85811015611ca95784840389528151611c8a8582611c25565b9450611c9583611c39565b925060208a01995050600181019050611c71565b50829750879550505050505092915050565b60006020820190508181036000830152611cd58184611c46565b905092915050565b60008060008060408587031215611cf757611cf6611542565b5b600085013567ffffffffffffffff811115611d1557611d14611547565b5b611d218782880161155b565b9450945050602085013567ffffffffffffffff811115611d4457611d43611547565b5b611d508782880161155b565b925092505092959194509250565b600081519050919050565b600082825260208201905092915050565b6000819050602082019050919050565b611d938161184c565b82525050565b6000606083016000830151611db16000860182611d8a565b506020830151611dc46020860182611b8b565b5060408301518482036040860152611ddc828261168a565b9150508091505092915050565b6000611df58383611d99565b905092915050565b6000602082019050919050565b6000611e1582611d5e565b611e1f8185611d69565b935083602082028501611e3185611d7a565b8060005b85811015611e6d5784840389528151611e4e8582611de9565b9450611e5983611dfd565b925060208a01995050600181019050611e35565b50829750879550505050505092915050565b60006020820190508181036000830152611e998184611e0a565b905092915050565b600080600080600060608688031215611ebd57611ebc611542565b5b600086013567ffffffffffffffff811115611edb57611eda611547565b5b611ee78882890161155b565b95509550506020611efa888289016118ab565b935050604086013567ffffffffffffffff811115611f1b57611f1a611547565b5b611f278882890161155b565b92509250509295509295909350565b600081905092915050565b6000611f4d8385611f36565b9350611f5a8385846118f6565b82840190509392505050565b6000611f73828486611f41565b91508190509392505050565b7f4e487b7100000000000000000000000000000000000000000000000000000000600052602260045260246000fd5b60006002820490506001821680611fc657607f821691505b60208210811415611fda57611fd9611f7f565b5b50919050565b7f4e487b7100000000000000000000000000000000000000000000000000000000600052603260045260246000fd5b600061201a8261162a565b6120248185611f36565b9350612034818560208601611646565b80840191505092915050565b600061204c828461200f565b915081905092915050565b7f4e487b7100000000000000000000000000000000000000000000000000000000600052601160045260246000fd5b60006120918261188a565b91507fffffffffffffffffffffffffffffffffffffffffffffffffffffffffffffffff8214156120c4576120c3612057565b5b600182019050919050565b60008190508160005260206000209050919050565b600081546120f181611fae565b6120fb8186611f36565b9450600182166000811461211657600181146121275761215a565b60ff1983168652818601935061215a565b612130856120cf565b60005b8381101561215257815481890152600182019150602081019050612133565b838801955050505b50505092915050565b600061216f82846120e4565b915081905092915050565b60006121858261188a565b91506121908361188a565b9250827fffffffffffffffffffffffffffffffffffffffffffffffffffffffffffffffff038211156121c5576121c4612057565b5b828201905092915050565b7f4e487b7100000000000000000000000000000000000000000000000000000000600052601260045260246000fd5b600061220a8261188a565b91506122158361188a565b925082612225576122246121d0565b5b828204905092915050565b600061223b8261188a565b91506122468361188a565b9250817fffffffffffffffffffffffffffffffffffffffffffffffffffffffffffffffff048311821515161561227f5761227e612057565b5b82820290509291505056fea2646970667358221220f6f021aa866ad0b833a459ce9a994e0088df4b1fc5384ce1e012409f9c792ab764736f6c63430008080033",
    "linkReferences": {},
    "deployedLinkReferences": {}
}